:100000000C94F9020C9431030C9431030C943103D9
:100010000C9431030C9431030C9431030C94310390
:100020000C9431030C9431030C9425180C94E917AB
:100030000C9447220C9431030C9431030C9431033B
:100040000C9431030C9431030C9431030C94310360
:100050000C9431030C94FD180C9431030C9431036F
:100060000C9431030C9431030C9431030C94310340
:100070000C9431030C9431030C9431030C94310330
:100080000C9431030C9431030C9431030C94310320
:100090000C9431030C9431030C9431030C94310310
:1000A0000C9431030C9431030C9431030501098045
:1000B000A101850319012AB700150126B700950192
:1000C00075108100C0050C0901A101850419012AE0
:1000D000A002150126A002950175108100C005013E
:1000E0000906A1018506050719E029E71500250184
:1000F0009508750181020507190029EF15002501F2
:1001000095F075018102050819012905950575010C
:100110009102950175039101C00660FF0961A1017B
:100120000962150026FF00952075088102096315F4
:100130000026FF00952075089102C005010906A15F
:1001400001050719E029E7150025019508750181CA
:10015000029501750881010507190029FF15002680
:10016000FF00950675088100050819012905950508
:1001700075019102950175039101C029003A003B78
:10018000003C003D003E003F004000410042004373
:1001900000440045004C0035001E001F00200021D7
:1001A000002200230024002500260027002D002E19
:1001B000002A002B0014001A000800150017001C6C
:1001C0000018000C00120013002F00300031000056
:1001D0000704001600070009000A000B000D000EBE
:1001E000000F003300340028004A00E1001D001B0E
:1001F0000006001900050011001000360037003815
:1002000000E50052004B00E000E3000151E2002C49
:10021000004D002C00E400E6000151500051004F59
:10022000004E00005C01000100010001000100011E
:1002300000010001000100010001000100010001B6
:1002400000010001000100010001000100010001A6
:10025000000100C35CCB5CCA5C01004600010001E8
:1002600000C65C010001004A004E004B004D000139
:1002700000010001000100010001000100C75C0154
:100280000001005000510052004F00010001000128
:1002900000AE0001000100010001000100010001A9
:1002A0000001000100010001000100C45CA900017F
:1002B000000100010001000100A80001000100018F
:1002C000000100CD5CC55CCC5CAA0001000100010E
:1002D0000001000100010001000100010001000116
:1002E0000001000100010001000100010001000106
:1002F00000010001000100010001000100010001F6
:1003000000010001000100010001000100010001E5
:1003100000010001000100010001000100010001D5
:1003200000010001000100010001000100010001C5
:1003300000010001000100010001000100010001B5
:1003400000010001000100010001000100010001A5
:100350000001000100010001000100010001000195
:100360000001000100010001000100010001000185
:100370000001000100010001000100010001000175
:100380000001000100010001000100010001000165
:100390000001000100010001000100010001000155
:1003A0000001000100010001000100010001000145
:1003B0000001000100010001000100010001000135
:1003C0000001000100010001000100010001000125
:1003D0000001000100010001000100010001000115
:1003E0000001000100010001000100010001000105
:1003F00000010001000100010001000100010001F5
:1004000000010001000100010001000100010001E4
:1004100000010001000100010001000001010101D3
:1004200001010101010202020202020202020303AF
:10043000030303030303040404040404040505057F
:100440000505060606060607070707070808080841
:10045000090909090A0A0A0B0B0B0C0C0C0D0D0DEE
:100460000E0E0E0F0F0F1010111111121213131484
:1004700014151516161717181819191A1A1B1B1CFC
:100480001D1D1E1E1F202021222223242425262656
:10049000272829292A2B2C2D2D2E2F30313232338B
:1004A0003435363738393A3B3C3D3E3F4041424394
:1004B0004445464748494A4C4D4E4F505153545578
:1004C0005658595A5B5D5E5F616264656668696B28
:1004D0006C6D6F7072737577787A7B7D7E808283A6
:1004E0008587888A8C8E8F91939596989A9C9EA0EA
:1004F000A2A3A5A7A9ABADAFB1B3B5B7BABCBEC0F7
:10050000C2C4C6C9CBCDCFD1D4D6D8DBDDDFE2E4BF
:10051000E7E9EBEEF0F3F5F8FAFDFF09025B000303
:100520000100A0FA090400000103010100092111E2
:1005300001000122400007058103080001090401B0
:10054000000203000000092111010001222200071E
:1005500005820320000107050303200001090402AE
:10056000000103000000092111010001226D0007B4
:1005700005840320000112010002000000088433FA
:10058000010001000102000150034C0061007500F0
:100590006E0063006800200043006F006E0066007C
:1005A0006900670075007200610062006C00650000
:1005B00020004B006500790062006F00610072004E
:1005C0006400200028006C00610075006E0063006C
:1005D00068005F0031002900000012035300790019
:1005E0007300740065006D003700360000000403DE
:1005F000090411241FBECFEFDAE0DEBFCDBF04B681
:1006000003FE18C080910F0790911007A091110769
:10061000B09112078730904BA740B04B59F410921D
:100620000F07109210071092110710921207E0E0C6
:10063000F8E3099513E0A0E0B1E0EEEDF4E502C0C7
:1006400005900D92A834B107D9F727E0A8E4B3E0EC
:1006500001C01D92AF30B207E1F70E9470220C94E6
:100660006D2A0C940000E8EDF0E080818E7F80839D
:100670001092E2001092DA001092E100A0EEB0E0D9
:100680008C9181608C9380818F77808319BCA7EDDA
:10069000B0E08C918E7F8C9380818F7E80831092CE
:1006A000AA0608952091E4003091E50085E6909136
:1006B000EC0090FF06C09091E80090FF06C080E03B
:1006C00008959091E80092FDFACF9091CF0699237A
:1006D00091F0953091F09091EB0095FD10C0409114
:1006E000E4005091E5002417350709F381509A0181
:1006F000F1F684E0089582E0089583E0089581E0B2
:100700000895EF92FF920F931F93CF937C018B017B
:100710000E945203C82F811117C08091E80085FD07
:100720000BC08091E8008E778093E8000E9452030E
:10073000882399F3C82F08C0F70181917F01809326
:10074000F1000150110949F78C2FCF911F910F91A2
:10075000FF90EF9008958091D10687FF13C080919C
:10076000E80082FF06C08091E8008B778093E80064
:1007700004C08091CF068111F2CF08958091CF06F9
:100780008823D9F38091E80080FFF8CF8091E800BA
:100790008E77ECCF982F9093E900242F762F50E09E
:1007A000891731F07091EC002091ED005091F0002C
:1007B00021FD07C09F5F973071F78093E90081E0CA
:1007C00008953091EB003E7F3093EB003091ED00C7
:1007D0003D7F3093ED003091EB0031603093EB00C2
:1007E0007093EC002093ED005093F0002091EE0008
:1007F00027FDE0CF80E00895B0E0A0E0E2E0F4E083
:100800000C94A329C8EDD0E088818F7E8883E7ED22
:10081000F0E080818160808384E082BF81E080930A
:10082000AA0688818E7F888302EE10E0F80110828C
:100830001092DA0081EEC82ED12CF6011082888148
:100840008F77888388818068888388818F7D88837B
:1008500019BC1092CF061092D0061092CE061092BC
:10086000CD0690EEE92EF12CF70180818B7F8083FD
:1008700088818160888342E060E080E00E94CA0352
:10088000F60180818E7F8083F80180818160808382
:10089000808188608083F70180818E7F808388815A
:1008A00080618883CDB7DEB7E8E00C94BF29FC01F6
:1008B0008091D7069091D80686179707A0F061150A
:1008C000710529F49091E8009E779093E80090E0FC
:1008D0006115710551F4911108C08091E80082FF03
:1008E00035C080E00895BC01F2CF8091CF06882307
:1008F000C9F18530C9F18091E80083FD31C0809154
:10090000E80082FDEACF8091E80080FFE1CF2091EE
:10091000F3008091F200322F282F6115710519F034
:100920002830310558F091E02830310509F090E089
:100930002091E8002E772093E800CACF8191809320
:10094000F100615071092F5F3F4FE7CF8091CF06D3
:10095000882341F0853041F08091E80083FFBDCFCE
:1009600081E0089582E0089583E008950895089550
:100970008091AC06089520919E0630919F0628171D
:10098000390771F090939F0680939E06E0919C0634
:10099000F0919D06309721F00084F185E02D0995B6
:1009A000089520919A0630919B062817390771F017
:1009B00090939B0680939A06E0919C06F0919D0689
:1009C000309721F00680F781E02D09950895E09198
:1009D0009C06F0919D06309729F00190F081E02D62
:1009E0000995089580E00895EEE9F5E096E0EA398A
:1009F000F90709F408958183608342833396F6CF23
:100A0000FC01EE0FFF1FE80FF91FE256FA4F61835A
:100A1000408322830895FC019B01AC0197FF04C031
:100A200044275527481B590BBA01620F731F37FD26
:100A30000FC0241B350BC901A5E0880F991FAA958B
:100A4000E1F70E94DC2980E2861BF7FD819508957D
:100A5000CB0165E0880F991F6A95E1F7BA01621B27
:100A6000730B0E94DC2980E6EFCFBC019FEF613E53
:100A70008EE1780740F49B0195E0369527959A958D
:100A8000E1F798E0920F41E0E42FE90FFF27FF1F05
:100A90009F0135952795822F229FF001239FF00D0E
:100AA000F00D11246E177F0738F49FEF920F941703
:100AB00058F78FEF840F08952F3FE9F341E0420F7D
:100AC000F6CFEF92FF920F939701201B31092F3F32
:100AD000310519F010F02FEF30E0322F3095482F0C
:100AE000430F08F44FEF842F620F0F91FF90EF90A8
:100AF00008950F93CF93DF93D72FC82F47FD4195CC
:100B000088E390E0BC01641B710947FD7395669F03
:100B1000C001679F900D900D1124229FB001239F6B
:100B2000700D700D1124860F971F8230910510F003
:100B30000E943505682F660F860F682F600F7D2F86
:100B40008C2FDF91CF910F910895EF920F93972FF4
:100B500023E0029FB0011124759567956E0D792FE2
:100B60000F91EF900895322F50E0FA01EE0FFF1F22
:100B7000E45BFD4F9081905297FD9195440F551F76
:100B8000FA01E55BFD4F2081231B330B290F311D3B
:100B900097FD3A95620F0895E42FF0E0EE0FFF1FE6
:100BA000E45BFD4F6081621B0895E42FF0E0EE0FDF
:100BB000FF1FE55BFD4F6081621B0895622F089562
:100BC0000E94F40408950E9400050895EF920F9387
:100BD000CF93DF93D72FC82FC9010E19009729F49F
:100BE00080E857FD05C080E003C0BA010E940B05F4
:100BF000602F681B7D2F8C2FDF91CF910F91EF908D
:100C000008950F93CF93DF93D72FC82FC901009773
:100C100029F480E857FD05C080E003C0BA010E94B6
:100C20000B05602F680F7D2F8C2FDF91CF910F91D7
:100C3000089530E020E0869F212D969F200D311DE4
:100C40001124C9010895B0E0A0E0E9E2F6E00C94B7
:100C5000A1299B01E82FF0E0E55EFB4F311109C0AF
:100C6000E4918E2F7E2F6E2FCDB7DEB7EAE00C9485
:100C7000BD29032F10E0E491FE2FEE2EF12C46E06B
:100C8000649FC0011124CFEFD0E0BE010E948529EE
:100C9000AB01822F90E0880F991F25E5249FB001BA
:100CA000259F700D1124861B970B982F990F980F75
:100CB000BE01601B710B6E9DD0016F9DB00D7E9DBE
:100CC000B00D11248B2F399F90011124232F33272E
:100CD000BE01621B730B6E9D90016F9D300D7E9D5A
:100CE000300D1124732F5E01A91AB108A09E600176
:100CF000A19ED00CB09ED00C1124CD2CDD24CC199B
:100D0000DD09CE9D8001CF9D100DDE9D100D1124BB
:100D100042305105B1F058F44115510579F0413098
:100D2000510509F4A0CF7E2FEB2F832F9CCF4430A9
:100D3000510571F048F046305105A9F77E2FE12F9B
:100D400092CF7B2F812F8FCFE32F7B2F8F2F8BCFB6
:100D5000712FEB2FFBCF0F931F93CF93DF93EC01FA
:100D6000FC01ED50FD4F80816823D1F10091DF0639
:100D70001091E0064091DE06E42FF0E0609143011F
:100D80007091440185E098E0689F9001699F300D63
:100D9000789F300D1124275E394C30934401209305
:100DA0004301CF018C549F4F68E671E00E94DC291B
:100DB0008E1B9F0B97FD0396959587959595879527
:100DC000230F2370642F289F600D1124702F812F13
:100DD0000E942306462F282F672FCE010E94E3058D
:100DE000DF91CF911F910F910895ABE0B0E0EBEF51
:100DF000F6E00C9499298C832091460181E1289F8B
:100E0000802D11248A838F5E89838B83853510F032
:100E100034E53B834091E3064D839A81892F90E02E
:100E20009B878A87880F991FFC01E55BFD4F6F0147
:100E3000FC818F2F90E09C01220F331FA9014450A9
:100E4000594F5F834E83FC013196F987E8878B8188
:100E50009A85981748F081E0E981E43508F080E050
:100E60002B96E2E10C94B529EA85FB85ED50FD4F08
:100E7000808190914701892311F12090DE06309006
:100E8000DF06288539852D51394F39014E805F8025
:100E90003C813A8310E02D813A813217D0F02091C5
:100EA000E006129F112D1124B101812F0E9423060B
:100EB000462F282F672F8A859B850E94E3054A8548
:100EC0005B854F5F5F4F5B874A8752E0C50ED11C41
:100ED000BECFF30181913F01F601A080A81ABB08A3
:100EE0008180F3018781881A9908AA9CC001AB9C74
:100EF000900D900D1124889C9001899C300D300D2F
:100F00001124820F931F82309105D4F4082F609131
:100F1000E10621E0620F08F46FEFF20181919191F7
:100F20002F010E9419067C019401A501B101812FB6
:100F30000E9461051B01FA81FF5FFA83182FABCF76
:100F40000E943505E3CFB0E0A0E0E9EAF7E00C94B9
:100F500099293C01C091460181E1C89FC02D11240F
:100F600011E11C0FF12E153510F034E5F32E6091D0
:100F7000E10666958091D9069091DA060E941906DD
:100F8000582ED0E0CE01880F991F9C0129503E4F6A
:100F90006901CF1548F081E0143508F080E0CDB745
:100FA000DEB7E2E10C94B529FE01ED50FD4F8081E2
:100FB000909147018923C9F1F601EC5AFF4F8081D6
:100FC000E82FE057FF0B5F01F601EB5AFF4F8081DE
:100FD000282F2052330B4901AA9CC001AB9C900DD5
:100FE000900D1124889C9001899C300D300D1124A6
:100FF000820F931F8230910510F00E9435052090DA
:10100000DE063090DF064090E006E52C082F9401C4
:10101000A501842DB101F30109950E942306462FF5
:10102000282F672FCE010E94E3052196F2E0CF0E14
:10103000D11CAFCFB0E0A0E0E0E2F8E00C94A12931
:101040006C01C091460181E1C89FC02D112411E1BE
:101050001C0FB12E153510F034E5B32E6091E1066A
:1010600066958091D9069091DA060E941906A82EFD
:10107000D0E0CE01880F991F9C01255B3D4F79017F
:10108000CB1548F081E0143508F080E0CDB7DEB72D
:10109000EAE00C94BD29FE01ED50FD4F8081909156
:1010A00047018923C1F0F70121812052330B408190
:1010B0004057550B6091DE067091DF068091E00687
:1010C0000A2DF60109950E942306462F282F672F27
:1010D000CE010E94E305F2E0EF0EF11C2196D0CF85
:1010E000B0E0A0E0E6E7F8E00C94A4297C01C09110
:1010F000460181E1C89FC02D112411E11C0F012F71
:10110000153508F004E56091E1066695669521E0E5
:10111000620F08F46FEF8091D9069091DA060E9471
:101120001906D82ED0E0C01748F081E0143508F039
:1011300080E0CDB7DEB7E7E00C94C029FE01ED50AA
:10114000FD4F808190914701892391F06091DE06E7
:101150007091DF068091E0062D2D4C2FF701099547
:101160000E942306462F282F672FCE010E94E305F9
:101170002196D9CF80E00895F894E82FE295EF709A
:10118000F0E031A1282F2F7081E090E001C0880F9E
:101190002A95EAF7982F9095932391A392A1892BF2
:1011A00082A3789408959091A50692FF06C0282FF7
:1011B00028712830F9F4877F846093FF06C0282FB8
:1011C00028712831F1F4877E84612091A60620FFE2
:1011D00006C0382F38713830D9F4877F816021FFFD
:1011E00006C0282F28712831D1F4877E816194FDB3
:1011F000877E0895282F24712430F9F68B7F88602C
:10120000DCCF282F2471243101F78B7E8861DDCF5C
:10121000382F3171313019F78E7F8860E0CF282F59
:101220002171213121F78E7E8861E1CFCF93DF9349
:10123000EC0182389105B1F108F040C0813391058D
:1012400009F49DC048F58932910509F48DC08A974B
:1012500009F49CC0C11522E5D20708F0BDC0C11534
:1012600081E5D80708F025C1C83ED10508F0A3C024
:10127000C13ED10588F5C83AD10508F08EC0C53AFF
:10128000D10508F0F7C0C130D10531F108F449C0EB
:10129000C430D10508F545C08533910509F45FC018
:1012A000C997C1F68091A506837009F039C1809174
:1012B000A60683FF11C0C9E2D0E00EC0833E9105AF
:1012C00099F170F4803E910501F1823E910511F68D
:1012D0008091A50682FD21C0CE01DF91CF910895B6
:1012E000863E910561F1873E910571F1843E91053D
:1012F00009F0B0CF8091A60681FFEECF8091A506C0
:10130000C7EED0E084FD0DC0E7CF8091A50680FD3B
:1013100033C09091A60690FFDFCFC3EED0E084FFEC
:10132000DBCFD0E0C0E0D8CF8091A50682FDF5C02C
:101330009091A60690FDF4C084FDF3CFCDCF8091AF
:10134000A50683FDDDCFC8CF8091A50683FDEBC048
:101350009091A60691FFF0CFC4EED0E0BDCF809172
:10136000A50685FFB9CFA7CF8091A50685FDDEC074
:101370008091A60683FFB0CFC9E3D0E0ADCF8091C6
:10138000A50686FFA9CFCAE2D0E0A6CF8091A50628
:1013900086FFA2CFC1E3D0E09FCFCF3BD10508F6B7
:1013A000C85AD0E0CC0FDD1FC957DE4F0990D88155
:1013B000C02DD46491CFC11520E5D20708F065C0D7
:1013C000C11580E4D80708F05DC0CE019A9581155B
:1013D0009F4108F481CFA5CFC11586E5D80718F540
:1013E000C11525E5D20708F07DC0C11584E5D807F1
:1013F00008F073C09E01237033279C2F9695969515
:10140000C115D34508F45AC0C1E0D0E002C0CC0FEA
:10141000DD1F2A95E2F720E2929FC0011124C82B1C
:10142000D92BDA6859CFC1152AE5D20778F4C1154E
:1014300089E5D80708F061C0C11528E5D20708F48E
:1014400070CFDC2FCC27C06FD06A46CFCE0190562C
:101450008115904208F065CF8D2F8F710E94D308BF
:1014600090E0982F882788279F71DD27D062C82BAE
:10147000D92B32CFC55AD0E0CC57DE4FC881D0E04F
:10148000D0642ACFDF70D06A27CFCE01837099272E
:1014900021E030E002C0220F331F8A95E2F7C695A3
:1014A000C69580E2C89FE0011124C22BD32BDD68D2
:1014B00013CFDC2FCC27C16FD06A0ECFC1E0D0E0B4
:1014C00002C0CC0FDD1F2A95E2F720E2929FC001F7
:1014D0001124C82BD92BDC68FFCEDC2FCC27C46F9E
:1014E000D06AFACE8C2F0E94D308C82FD0E0DC2F10
:1014F000CC27CC27DF71D062EFCE8C2F8F700E946B
:10150000D30834E0D695C7953A95E1F7CF70D0E08F
:10151000DC2FCC27D069C82BDFCEC2EED0E0DCCEEA
:10152000C0EED0E0D9CEC6EED0E0D6CEC5E3D0E056
:10153000D3CE8091E70381111092E7030895982F8D
:1015400090958091E60389238093E6030895909116
:1015500045019923D1F09091A50697FF16C0E82F79
:10156000E695E695E695EE31D8F4F0E0E65BFC4FC3
:10157000282F277081E090E001C0880F2A95EAF7B4
:1015800080959281892382830895EAE4F3E0928131
:10159000891301C01282319693E0E035F907B9F75B
:1015A0000895909145019923C1F09091A50697FF68
:1015B00014C0E82FE695E695E695EE31F8F4F0E0F4
:1015C000E65BFC4F877021E030E001C0220F8A9576
:1015D000EAF78281822B82830895ACE4B3E0EFEFD7
:1015E00090E02D91821751F0EF3F19F4211101C0C5
:1015F000E92F9F5F9630A9F7EF3F09F408950E2E6B
:10160000000CFF0BE65BFC4FE6CF8091C30390918B
:101610009203981301C008958F5F8770FACF292F26
:10162000963078F58E3068F590E03EE0239F800D8F
:10163000911D1124682F677023E0969587952A9550
:10164000E1F7FC01EE0FFF1FE80FF91FE559FC4F12
:1016500050E040E080E0219130E0062E02C0369557
:1016600027950A94E2F721703327042E01C0220F38
:101670000A94EAF7822B4F5F5F4F4330510559F7C9
:10168000089580E00895292F963098F58E3088F5DA
:1016900090E03EE0239F800D911D1124282F27709C
:1016A00041E001C0440F2A95EAF723E0969587951B
:1016B0002A95E1F7FC01EE0FFF1FE80FF91FE5592E
:1016C000FC4F30E020E070E05191DF011197CB0139
:1016D000022E02C0969587950A94E2F78170819553
:1016E0008527842385278C932F5F3F4F2330310537
:1016F00059F70895982F92959F7020E011F0892F47
:1017000024E0982F9695969511F02E5F892F982FAB
:10171000969509F02F5F822F08950E947A0B8430EE
:1017200060F496E0989FF0011124E85DFE4FADED66
:10173000B6E001900D929A95E1F70895E8E2F1E0A4
:10174000838381878787858B80916C040E948D0BB2
:101750000895A3E0B0E0EFEAFBE00C94A929209102
:101760004D0130914E0140914F0129833A834B83C3
:10177000FC01808124E630E043E050E0BE016F5F71
:101780007F4F880F0E94F0282396E2E00C94C52931
:10179000ADE0B0E0EEECFBE00C94A1297C01690126
:1017A0001A861B861C861D8619821A8286E08B8308
:1017B00081E08C8384E08D838FEB8E836F835887E9
:1017C0004987F701808124E630E049E050E0BE011E
:1017D0006F5F7F4F880F0E94F0288C0197FD5CC0DF
:1017E000C7010E94A90B8C0197FD56C0F7018081AB
:1017F00064E670E0880F0E9410288C0197FD3DC0C0
:1018000064E670E080E00E947C288C0197FD35C082
:1018100064E670E086E00E947C288C0197FD2DC074
:10182000F7018081880F64E670E081600E941028D3
:101830008C0197FD22C084E690E00E94AA288C01CA
:1018400097FD1BC07E01FAE0EF0EF11C5E018CE0FB
:10185000A80EB11C84E690E00E94AA288C0197FD96
:101860000CC0F7018083EA14FB04D9F484E690E00D
:101870000E94CD288C0197FF0D870E94812917FDBA
:101880000BC08A859B85AC85BD85F60180839183DD
:10189000A283B38304E010E0C8012D96EAE00C9423
:1018A000BD29FFEFEF1AFF0AD5CFA9E0B0E0EBE5C5
:1018B000FCE00C949D295C01390119821A8286E0B2
:1018C000800F8B831C820D837E836F8358874987AB
:1018D000F501808164E670E0880F0E9410287C0189
:1018E00097FD2CC0CE0101966C014E019AE0890E45
:1018F000911C64E670E0F60181916F010E947C28E2
:101900007C0197FD1BC0C814D90499F763014301FA
:10191000800E911EC814D90439F40E948129C50192
:101920000E94A90B7C010AC064E670E0F601819177
:101930006F010E947C287C0197FFECCF0E948129D7
:10194000F7FE7801C7012996EEE00C94B929A4E0CE
:10195000B0E0EDEAFCE00C94A72909831A832B83FD
:101960003C8304E010E09E012F5F3F4F0E94550C26
:101970002496E4E00C94C329A4E0B0E0E2ECFCE09F
:101980000C94A5297C01162F19821A821B821C82B5
:101990009E012F5F3F4F48E259E060E87FEBFC017A
:1019A000808191810E94C80B97FD2DC081E090E05D
:1019B000A0E0B0E0F701028004C0880F991FAA1FC1
:1019C000BB1F0A94D2F749815A816B817C81112314
:1019D000F1F0842B952BA62BB72B89839A83AB83AD
:1019E000BC8309811A812B813C8148E259E060E87F
:1019F0007FEBF701808191810E94A70C18161906D0
:101A000014F490E080E02496E6E00C94C1298095DF
:101A10009095A095B09584239523A623B723DDCF79
:101A2000A5E0B0E0E6E1FDE00C94A5297C01FC0115
:101A300042815381648175814D5F534F6F4770447C
:101A4000808191811D8201E010E09E012B5F3F4F5C
:101A50000E94550C97FD3CC060E0C7010E94BC0C81
:101A600019821A821B821C829E012F5F3F4F48E021
:101A700059E060E87FEBF701808191810E94C80BFB
:101A800097FD26C001E010E020E030E0F701028081
:101A900004C0000F111F221F331F0A94D2F789813F
:101AA0009A81AB81BC81082B192B2A2B3B2B0983F4
:101AB0001A832B833C8348E059E060E87FEB808108
:101AC00091810E94A70C1816190614F490E080E08A
:101AD0002596E6E00C94C129A1E0B0E0E2E7FDE044
:101AE0000C94A7298091490104E610E021E030E040
:101AF000AE014F5F5F4F6DE1880F0E94382997FD5F
:101B000011C020914B0130914C019981937060E09C
:101B100009F061E0C9010E94BC0C1816190614F402
:101B200090E080E02196E4E00C94C3298093A7061E
:101B30007093A9066093A8068091CF068430F9F4CB
:101B40008093E9008FEF9091E800815095FD06C0E9
:101B50009AE69A95F1F700C08111F5CF8091E800DF
:101B600085FF0DC050E040E063E070E087EA96E05A
:101B70000E9481038091E8008E778093E8000895A9
:101B8000BC0184E00E94960D0895BC0183E00E9490
:101B9000960D0895CF93DF93EC0180914501882342
:101BA000B1F18091A50687FF32C060E284E08093A6
:101BB000E9008FEF9091E800815095FD06C09AE60C
:101BC0009A95F1F700C08111F5CF8091E80085FF6B
:101BD0001BC08091450170E050E040E0811104C0DD
:101BE00050E040E068E070E0CE010E948103809107
:101BF000E8008E778093E80080E2FE01ADEAB6E06F
:101C000001900D928A95E1F7DF91CF91089568E0F8
:101C100081E0CDCF81E08093E00080E28093D80026
:101C20001092C9008FE097E20197F1F700C0000021
:101C300087E090EBDC0180930F0790931007A0934F
:101C40001107B093120788E19CE00FB6F894A895AD
:101C5000809360000FBE90936000FFCF6A9A8EB1B0
:101C60008B7F9EB194602FB7F894EEE9F5E036E0F3
:101C7000EA39F30741F42FBF8FE292E00197F1F7C1
:101C800000C000000895319148E09EB937FF8EB939
:101C9000330F000000C08EB94A95B9F7E8CF1F9303
:101CA000CF93DF93122F8430E8F46630D8F44E30AF
:101CB000C8F4C42FD0E0CC0FDD1F9CE1699FC00D9C
:101CC000D11D112498EA899FC00DD11D1124CD5B2F
:101CD000DF4F632FCE010E94242A612FCE0101968F
:101CE0000E94242ADF91CF911F9108950F931F9393
:101CF000CF93DF93843038F5663028F54E3018F5F1
:101D0000C42FD0E0CC0FDD1F2CE1629FC00DD11D90
:101D1000112438EA839FC00DD11D1124CD5BDF4F04
:101D2000CE010E94062A082F10E0102F0027CE01B6
:101D300001960E94062A9801282BC901DF91CF91B4
:101D40001F910F91089590E080E0F8CF462F8430E6
:101D500040F4763030F46E3020F4672F0E94760E17
:101D6000089590E080E00895CF92DF92FF920F9364
:101D70001F93CF93DF936C0100916C048091E80373
:101D8000082BC7E0D0E010E0FC2EC8010C2E02C0EA
:101D9000959587950A94E2F780FD0CC02197A0F7EE
:101DA000F12C8F2DDF91CF911F910F91FF90DF903C
:101DB000CF900895B6018C2F0E94A60E0E9416099E
:101DC000019761F3EECFCF93DF93EC010E94B40E45
:101DD000BE010E94A60E0E941609DF91CF910895C0
:101DE000CF93FC018081918123813481232B39F0B1
:101DF0009F3F19F491E08F3F19F090E001C091E00E
:101E0000C92FC17090FD1FC0808191810E94E30E97
:101E100092959F70963091F050F49250923058F411
:101E2000803F19F030F4883E30F4C1E004C09A508D
:101E3000F5CF843FD1F38C2FCF910895883EA8F33E
:101E4000813FC9F7F2CFC0E0F6CFB0E0A0E0EBE20F
:101E5000FFE00C94A029182F80914101811334C018
:101E60009091DD0693702091400130E081E092175F
:101E7000130609F480E08170809348018091E206A6
:101E800090914701981739F08093470140E060E056
:101E900080E00E94E005103108F001C2E12FF0E07F
:101EA000EC5AF04F0C94F029660F710FA00FBC0F85
:101EB000BF0FC20FC50FCA0FCF0FD20FD50F2410FF
:101EC0002F1031109610DC1081E0D5CF80914801A1
:101ED0008823D1F140E060E080E00E94E00580E0EE
:101EE00033C0C091460181E1C89FC02D112401E19A
:101EF0000C0FF02E053510F064E5F62E6091DE062D
:101F00007091DF068091E0060E942306E62ED72E10
:101F1000C82ED0E0CF1520F081E00435A8F0DFCF47
:101F2000FE01ED50FD4F808190914701892331F0F2
:101F30002C2D4E2D6D2DCE010E94E3052196EACF6A
:101F40008EED95E00E947008909146019F5F9093FE
:101F5000460181110CC082E08093420180914801CA
:101F6000811105C0111103C083E080934201CDB7F8
:101F7000DEB7EBE00C94BC2985ED95E0E3CF8CEC6B
:101F800095E0E0CF83EB95E0DDCF85EA95E00E9418
:101F9000A307DACF89E795E00E941A08D5CF81E040
:101FA00096E0FACF86EE95E0F2CFC091460181E14E
:101FB000C89FC02D112401E10C0F809148018111AF
:101FC00031C06091E10620E1620F08F46FEF80916B
:101FD000D9069091DA060E9419066AE070E00E9424
:101FE0008529892B09F098CF4091430150914401F4
:101FF00025E038E0429FC001439F900D529F900D15
:102000001124875E994C9093440180934301890F7A
:1020100064E50E94D02960914701892F90E00E94D9
:10202000AB067ACF802F053508F084E5D0E0E82EA6
:10203000F12CCE15DF050CF06FCF60914701CE017A
:102040000E94AB062196F5CF8091E30621E0682F30
:10205000621B08F460E0862F0E94F50675CF80E0D1
:10206000FBCF80916D0447EF51E020E0882309F415
:1020700056C0C091460181E1C89FC02D112401E1E5
:102080000C0FF02E053510F054E5F52E80916C0400
:102090000E947A0BE82E6091DE067091DF06809137
:1020A000E0060E942306D62EC72EB82ED0E0CF150C
:1020B00008F032CFFE01ED50FD4F80819091470135
:1020C0008923B1F0FE01E85EFB4F6081462F4F701F
:1020D00062956F708E2D0E94760E20E040E060E0E9
:1020E000029718F02B2D4D2D6C2DCE010E94E3058B
:1020F0002196DDCFFA01E80FF91FE081E43530F4D5
:10210000F0E0E85EFB4F322F382B308301968E30A3
:10211000910581F7425F5F4F205F203619F090E014
:1021200080E0E8CF81E080936D04A3CFC0914601A9
:1021300081E1C89FC02D112401E10C0F902E0535BF
:1021400010F044E5942EEC2EF12CE3E0CE9FE0015C
:102150001124C259DB4FCC24CA94D12CE91408F0C5
:10216000DBCEF701ED50FD4F80819091470189232F
:10217000F1F08091E006A8808A9D50011124E98148
:102180008E9FF00111249A81899FC0011124B6010C
:102190000E948529262FC501B6010E948529462F58
:1021A000CF01B6010E948529C7010E94E30523964D
:1021B000FFEFEF1AFF0AD2CF8091460191E1899F8C
:1021C000802D1124C1E1C80FDC2FC53508F0D4E5FE
:1021D00090916E059F5F90936E05909148019923B1
:1021E00021F010926E0510926D0540916E0541111F
:1021F00008C090916D05983039F410926C051092DA
:102200006D05E82EF12C3CC0E92FF0E0EE0FFF1F2A
:10221000E852FE4F208151816EE0269F90011124EB
:1022200029503E4F250F311DF90120812F3F19F014
:1022300020936A0541E040936C059F5F90936D0584
:10224000E0CFF701ED50FD4F8081209147018223BF
:10225000A1F060916E05690F30916C05EAE6F5E03A
:1022600080E77FEF20E0231313C00E942306462F50
:10227000282F672FC7010E94E305FFEFEF1AFF0A1F
:102280009E2DED16F0F281E0C43508F45DCE27CE28
:102290004191941302C08FEF70E02F5FE4CF8091E3
:1022A00046018F5F8093460156CECF9384E090E045
:1022B0000E94062AC82F82E290E00E94062A982FE8
:1022C0008C2FCF9108958F929F92AF92BF92CF9211
:1022D000DF92EF92FF921F93CF93DF934091980587
:1022E0005091990560919A0570919B052FB7F894CC
:1022F0008091A1069091A206A091A306B091A40698
:102300002FBF841B950BA60BB70B2FB7F894C0906B
:10231000A106D090A206E090A306F090A4062FBFDD
:10232000C0929805D0929905E0929A05F0929B058B
:1023300010916F05EFE6F5E0212F30E04FEF5FEFF2
:1023400060E070E0481B590B6A0B7B0B131325C030
:1023500020936F0580919D05811108C08091DD0655
:10236000982F937086958695911101C080E0909189
:1023700042019130E1F120F19230E1F1933009F422
:1023800044C0DF91CF911F91FF90EF90DF90CF90ED
:10239000BF90AF909F908F900895C18DD28D4E01C8
:1023A000B12CA12C481559056A057B0520F4215054
:1023B0003F5F3296CBCFC80FD91FD28FC18FF8CFD6
:1023C00010924601C092D906D092DA06E092DB065E
:1023D000F092DC0689E2EFE6F5E0A3EEB6E00190CC
:1023E0000D928A95E1F781E080934201CACF0E9465
:1023F000250FC7CF809341018091DD0683708093C4
:1024000040010E942E0E83E0EFCF80919C0588232F
:1024100051F046E050E06CE170E08DED96E00E94F6
:10242000142A10929C054091D9065091DA066091C9
:10243000DB067091DC062FB7F8948091A10690918D
:10244000A206A091A306B091A4062FBF841B950BF2
:10245000A60BB70B4097A105B10508F492CF1092D7
:1024600042018FCFEDEDF6E085E180838091500150
:1024700090915101A091520181839283A3838FE7B0
:1024800084838FEF858346E050E06CE170E0CF01FC
:102490000E94142A10929C05089548E150E063EED2
:1024A00072E0882369F088E291E00E94142A4CEFE0
:1024B00050E06BEF72E08EE694E00E94142A0895DB
:1024C00088E291E00E94F6294CEF50E06BEF72E059
:1024D0008EE694E00E94F62908958091E60390919B
:1024E000E503892B80934A039091E7039923A1F098
:1024F000892B80934A03809145018823E1F18091E3
:10250000A50687FF38C08EE1ECE4F3E090E081504F
:10251000A0F591110E94990A40E250E065EC73E049
:102520008AE493E00E94482A892B21F180E2EAE4C0
:10253000F3E0A5ECB3E001900D928A95E1F7E0910C
:102540009C06F0919D063097A9F080914501882363
:1025500059F08091A50687FF07C080914A038093B8
:102560004B0386E080934A030280F381E02D8AE4E6
:1025700093E00995089586E0C7CF2191222339F28F
:102580009F5FC5CF90E080E00E94D10490E080E0A2
:102590000E94BB041092E5030E946D120895CF9330
:1025A000C82F0E948D0BC0936C040E94C212CF9161
:1025B000089521E030E001C0220F8A95EAF72095C6
:1025C00080916C0482230E94CF1208959091C403DD
:1025D000809589238093C403282F277091F4282F96
:1025E000082E000C330B9217130659F09091A60693
:1025F00092FF07C08595859585950E94D912109206
:10260000C4030895CF93C091A606C2FB992790F901
:10261000981791F080FBC2F9C093A6066091A506B9
:1026200084E090E00E94242A6C2F82E290E00E94D5
:10263000242A82E00E94E612CF91089521E030E042
:1026400001C0220F8A95EAF780916C04822B0E94C8
:10265000CF1208958093E8030E94C2120895109249
:10266000E60380914501ECE4F3E0882361F080917A
:10267000A50687FF08C08EE1DF011D928A95E9F764
:102680000E94C212089586E0F7CFAAE2B0E0EBE420
:10269000F3E10C94A829E1EDF6E08091F10081933B
:1026A00086E0E93DF807C9F78091D206833009F446
:1026B0007FC008F5813009F456C0823009F4C0C0EB
:1026C0008091E80083FFFAC08091D1069091D206F4
:1026D0009A3008F0F3C0E92FF0E0EF58FC4E0C946C
:1026E000F029311457145E1457145E14AF14D1142A
:1026F0005E14D015DD158A3009F491C08B3009F4D1
:1027000074C08930E9F68091D1068132C9F6809192
:10271000D5069091D606009711F0029789F6809120
:10272000E800877F8093E8008091E80082FF3BC04B
:102730008091F3009091F2008927982789270297CA
:1027400031F48091F100813011F0863021F48091D4
:10275000F1008093AC068091E8008B778093E800CD
:102760000E94AB03ADCF8091D106813A09F0A8CF8A
:102770008091E800877F8093E8008091D506909152
:10278000D606892B61F060E090E080E070E00E9466
:1027900057048091E8008B778093E80091CF60E246
:1027A0008DEA96E0F3CF8091CF068111BDCF88CF1F
:1027B0008091D106813A09F083CF8091D50690911E
:1027C000D606892B09F07CCF8091E800877F809323
:1027D000E8008091E80080FFFCCF80914501809364
:1027E000F1008091E8008E77B9CF8091D1068132D7
:1027F00009F066CF8091D5069091D606892B09F015
:102800005FCF8091E800877F8093E8000E94AB0350
:102810008091D306809345010E942F1351CF809160
:10282000D106813209F04CCF8091E800877F8093F8
:10283000E8000E94AB038091D4068093AB0640CFA2
:102840008091D106813A09F03BCF8091E800877FE3
:102850008093E8008091E80080FFFCCF8091AB0678
:10286000BECF803889F0823849F58091D5068F70C7
:10287000873020F58093E9008091EB0085FB882765
:1028800080F91092E90006C08091CD069091CE06A5
:10289000911182609091E800977F9093E800809377
:1028A000F1001092F1008091E8008E7727C0282F68
:1028B0002D7F21F48823A1F0823029F18091E80056
:1028C00083FF0AC08091E800877F8093E8008091B1
:1028D000EB0080628093EB00AA96E3E00C94C4299D
:1028E0008091D306813051F7933009F080E08093D6
:1028F000CE061092E9008091E800877F8093E8007F
:102900000E94AB03DBCF8091D3068111F2CF80917F
:10291000D5068F702FEF280F263080F68093E900C0
:102920002091EB0020FFE5CF933031F48091EB0054
:1029300080628093EB00DDCF9091EB0090619093EB
:10294000EB0021E030E001C0220F8A95EAF72093E6
:10295000EA001092EA008091EB008860EACF8111D2
:10296000ADCF1091D3061F778091E3008078812B43
:102970008093E3008091E800877F8093E8000E94C5
:10298000AB038091E80080FFFCCF8091E30080687A
:102990008093E30083E0111101C082E08093CF06B1
:1029A0008DCF8058823008F089CF2091D3063091A6
:1029B000D4062C3DA3E03A07A1F583E08A838AE29E
:1029C00089834FB7F894DE01139620E03EE051E290
:1029D000E32FF0E050935700E49120FF03C0E2950D
:1029E000EF703F5FEF708E2F90E0EA30C0F0C79637
:1029F0008D939D932F5F243159F74FBF8091E8004D
:102A0000877F8093E8006AE270E0CE0101960E9421
:102A100057048091E8008B778093E8004FCFC096F1
:102A2000E7CF8091D5069091D606432F55274330A6
:102A3000510509F44FC078F54130510509F445C0FE
:102A40008BE590E0EBE1F5E04230510509F036CF3F
:102A50002091E800277F2093E8002091D70630914D
:102A6000D8068217930708F49C0140E02115310530
:102A700009F063C0411161C08091E80082FDC9CFB7
:102A80008091CF06882329F2853019F28091E800E1
:102A900083FFF2CFBECF4132510509F43FC042322D
:102AA000510509F00BCF8330910508F007CFFC01E9
:102AB000EE0FFF1FE551FE4F0190F081E02D885190
:102AC0009E4FDC018C9190E01DC082E190E0E6E732
:102AD000F5E0BECF332721303105C1F060F0223060
:102AE000310509F0EBCEE8E8F5E0E4918E2F90E0B7
:102AF000E8E8F5E007C0EEEEF5E0E4918E2F90E017
:102B0000EEEEF5E0009709F4D9CEA2CFEAEDF5E0BC
:102B1000E4918E2F90E0EAEDF5E0F4CF833091055B
:102B200008F0CCCE880F991FFC01EF50FE4F0190AA
:102B3000F081E02D89E090E08BCF8091CF06882353
:102B400009F467CF853009F464CF8091E80083FDF4
:102B500060CF8091E80082FD8FCF8091E80080FFF8
:102B600085CF8091F3009091F200892798278927DB
:102B70002115310519F08830910550F041E0089792
:102B800009F040E08091E8008E778093E8006ECFF6
:102B900044914093F1003196215031090196E8CFDC
:102BA000803809F08BCE8091E800877F8093E80021
:102BB0008091D0068093F10076CE81117FCE109166
:102BC000D306123008F07ACE8091E800877F809398
:102BD000E8001093D0060E94AB031123D1F084E0EB
:102BE0008093CF0642E061EC81E00E94CA0342E29A
:102BF00061EC84E00E94CA0342E261EC82E00E9440
:102C0000CA0342E260EC83E00E94CA038091CF06CF
:102C100055CE8091E30087FDE2CF81E0E1CF0E94B5
:102C20002F132FE78AE196E0215080409040E1F792
:102C300000C0000088E19CE00FB6F894A89580934E
:102C400060000FBE90936000FFCF882321F00E94A8
:102C50009F0A0E946D120895882339F09091E6032F
:102C6000892B8093E6030E946D120895882309F44E
:102C70004DC0823879F40E94E70481FF47C089E3A0
:102C80000E94D10A0E946D1289E30E94A70A0E9445
:102C90006D120895833859F40E94E70480FF36C00E
:102CA00083E50E94D10A0E946D1283E5EECF84383D
:102CB00059F40E94E70482FF29C087E40E94D10AE8
:102CC0000E946D1287E4E1CF9CEF980F913AE8F2F1
:102CD00090E2980F983050F4877091E001C0990FFE
:102CE0008A95EAF7892F0E949F0AD1CF9BE5980F1A
:102CF000933028F490E080E00E94D1040895885A2F
:102D0000873120F490E080E00E94BB040895CF93C7
:102D1000C82F8823C9F08238C9F40E94E70481FDD6
:102D200013C089E30E94D10A0E946D122FEF83EF36
:102D300091E0215080409040E1F700C0000089E31D
:102D40000E94A70A0E946D12CF9108958338A1F4C2
:102D50000E94E70480FDF8CF83E50E94D10A0E941B
:102D60006D122FEF80E792E0215080409040E1F714
:102D700000C0000083E5E4CF8438A1F40E94E7049A
:102D800082FDE2CF87E40E94D10A0E946D122FEFEC
:102D900080E792E0215080409040E1F700C00000C1
:102DA00087E4CECF8CEF8C0F813A90F5809145016E
:102DB000882301F18091A50687FF1CC0EC2FE695C2
:102DC000E695E695F0E0E65BFC4F828190E04C2FC3
:102DD000477021E030E002C0220F331F4A95E2F72E
:102DE00082239323892B81F08C2F0E94A70A0E94B3
:102DF0006D120AC0ECE4F3E082E593E02191C21782
:102E000099F38E179F07D1F78C2F0E94D10A9ACF82
:102E100080E28C0F883068F4C77021E030E001C098
:102E2000220FCA95EAF78091E603822B8093E6038E
:102E300089CFEBE5EC0FE33040F4F0E0EC57FE4FC8
:102E4000808190E00E94D1047FCFC85AC73108F03A
:102E50007BCFEC2FF0E0EE0FFF1FE957FE4F808194
:102E600091810E94BB0470CF68EE7EEF90E080E01D
:102E70000E94422A60E082E090E00E94242A60E002
:102E800083E090E00E94242A1092E80360E084E04E
:102E900090E00E94242A64E082E290E00E94242ACA
:102EA00060E085E090E00E94242A60E086E090E007
:102EB0000E94242A6FEF87E090E00E94242A40E0DD
:102EC00050E0BA0188E090E00E94362A60E08DE090
:102ED00090E00E94242A40E050E0BA0188E190E0AE
:102EE0000E94362A60E087E190E00E94242A40E0B8
:102EF00050E0BA018CE190E00E94362A70E060E078
:102F000080E290E00E94422A40E050E0BA0188E16D
:102F100090E00E94362A40E050E0BA018FE090E055
:102F20000E94362A40E050E0BA0183E190E00E941E
:102F3000362A0895A3E0B0E0E0EAF7E10C94A52971
:102F40007C01FC01808104E610E021E030E0AE016C
:102F50004D5F5F4F6DE1880F0E94382997FD21C0BA
:102F60008B81F70191819817D1F08183982F93700D
:102F70009230D9F086958695837060E08230B1F00A
:102F800086E68A83808121E030E0AE014E5F5F4FAC
:102F900063E2880F0E9411291816190614F490E0B4
:102FA00080E02396E6E00C94C12961E0F70182817C
:102FB00093810E94BC0C97FDF4CF87E78983F701CA
:102FC000808104E610E021E030E0AE014F5F5F4F0A
:102FD000DFCF1F920F920FB60F9211242F933F93C2
:102FE0004F935F936F937F938F939F93AF93BF9311
:102FF000CF93EF93FF93C091E900CF708091EC00E5
:103000001092E9008091F000877F8093F00078941F
:103010000E9445131092E9008091F000886080932F
:10302000F000C093E900FF91EF91CF91BF91AF9174
:103030009F918F917F916F915F914F913F912F91D0
:103040000F900FBE0F901F9018951F920F920FB602
:103050000F9211242F933F934F935F936F937F931E
:103060008F939F93AF93BF93EF93FF938091E10072
:1030700082FF09C08091E20082FF05C08091E100DB
:103080008B7F8093E1008091DA0080FF24C08091E3
:10309000D80080FF20C08091DA008E7F8093DA0014
:1030A0008091D90080FF9BC080E189BD82E189BD0C
:1030B00009B400FEFDCF81E08093CF068091AA067F
:1030C000811109C00E9433030E94FC038091E20039
:1030D00084608093E2008091E10080FF17C08091BE
:1030E000E20080FF13C08091E2008E7F8093E200B7
:1030F0008091E20080618093E2008091D80080623C
:103100008093D80019BC85E08093CF068091E100C0
:1031100084FF29C08091E20084FF25C080E189BD41
:1031200082E189BD09B400FEFDCF8091D8008F7D7A
:103130008093D8008091E1008F7E8093E1008091A0
:10314000E2008F7E8093E2008091E20081608093B4
:10315000E2008091D006882309F447C084E0809380
:10316000CF068091CF068091E10083FF27C0809138
:10317000E20083FF23C08091E100877F8093E1001C
:1031800082E08093CF061092D0068091E1008E7F7E
:103190008093E1008091E2008E7F8093E200809135
:1031A000E20080618093E20042E060E080E00E9403
:1031B000CA038091F00088608093F000FF91EF9146
:1031C000BF91AF919F918F917F916F915F914F913F
:1031D0003F912F910F900FBE0F901F90189519BC23
:1031E0001092CF061092AA0676CF8091E30087FD59
:1031F00002C081E0B4CF83E0B2CF78941F920F92E7
:103200000FB60F9211248F939F93AF93BF9380912A
:10321000A1069091A206A091A306B091A4060196E2
:10322000A11DB11D8093A1069093A206A093A306B1
:10323000B093A406BF91AF919F918F910F900FBE55
:103240000F901F9018959C014FB7F8948091A1069C
:103250009091A206A091A306B091A4064FBF821B35
:10326000930B08952FB7F8948091A1069091A20630
:10327000A091A306B091A4062FBF08950F931F93AA
:10328000CF93DF93C62FD42F122FFC018281882386
:10329000A9F060930E070E94321990930D07809356
:1032A0000C07C77081E001C0880FCA95EAF70E9439
:1032B0002C16DF91CF911F910F91089580910E07E9
:1032C000681335C080910C0790910D070E94231957
:1032D000883C910560F500E20D0FCD17B9F080E252
:1032E0008C0F883040F4C77081E001C0880FCA9508
:1032F000EAF70E942516083008F581E09D2F9770A7
:1033000001C0880F9A95EAF70E942C16812F0E941F
:103310008716812F0E943616083058F6D77081E044
:1033200001C0880FDA95EAF70E942516C2CFC77050
:1033300081E001C0880FCA95EAF7F6CF812F0E947D
:103340008716812F0E943616B4CFA5E0B0E0EBEAD5
:10335000F9E10C94A0297C01FC01908181812381F9
:103360003481232B39F08F3F19F481E09F3F19F00E
:1033700080E001C081E080FDA2C085E0F701DE01B0
:10338000119601900D928A95E1F7F70122818981CA
:103390009A81222309F443C00E94B40E182F682F8B
:1033A00089819A810E94430B69817A81812F0E94D1
:1033B000A60E8C01A0901604A11072C0863CFCE5FC
:1033C0009F0709F404C108F040C0833C9C4509F400
:1033D00033C1043C8CE5180730F501159CE519074D
:1033E00009F482C0043FFCE51F0709F447C108F057
:1033F00033C1093D3CE5130709F43CC10A3D8CE5A6
:10340000180709F447C1083D9CE5190709F079C080
:1034100026E241EE61EEC7010E943E1941C00E94C2
:103420000F0B182FC1CF043CECE51E0709F4B9C0FF
:10343000053CFCE51F07B1F6F7018281882309F4FA
:1034400060C0809128018450B4C08B3C2CE5920769
:1034500009F4D1C0C0F5073C8CE5180709F4C2C0D7
:103460000A3C9CE5190709F0BDCFF701828188234A
:10347000B9F09091E00681E2913280F0913308F446
:10348000D3C0923408F4D2C0933608F4D1C0943833
:1034900008F4D0C080EB891708F4C4C00E949E0BCA
:1034A0008091C403877059F0F7018281882339F035
:1034B0008091A60682FF03C082E00E94E612259654
:1034C000EBE00C94BC298C3CECE59E0709F474C03D
:1034D0008D3C9C4509F086CFF7018281882389F0D5
:1034E00080912C01815070C0F7018281882349F0BE
:1034F0008091DD06837029F08C638093DD06109245
:103500004201F7018281882309F48DC410920E07CD
:103510000430FDE51F0708F0C0C00B3F2CE5120783
:1035200030F4C80182509C45449708F0C1C00E9405
:1035300055119093A6068093A5060231ECE51E076F
:1035400009F4C1C108F00DC109302CE5120709F4D6
:1035500098C108F0D6C005308CE5180709F482C17F
:1035600008F0C2C00330ECE51E0709F473C108F08F
:1035700075C18091A506816002302CE5120709F41F
:10358000EDC06091A5061091A60684E090E00E942F
:10359000242A612F82E290E00E94242A0E942F13A5
:1035A0007FCFF7018281882309F4ABCF8091280176
:1035B0008C5F80932801A5CFF7018281882309F4CD
:1035C000A0CF80912C018F5F80932C019ACFF701BF
:1035D0008281882309F495CF809129018F5F8093A0
:1035E00029018FCFF7018281882309F48ACF809146
:1035F00029018150F4CFF7018281882309F450CF4B
:103600009091E00680EB913B08F048CF953890F41C
:10361000943670F4933450F4923330F481E2981776
:1036200008F03CCF892F3ACF81E338CF82E436CF00
:1036300083E634CF84E832CFF7018281882309F40E
:103640002FCF8091E006811103C08091120126CF17
:103650008093120180E022CF063FECE51E07B1F017
:1036600088F0073F2CE5120709F04BCF27E245EE23
:1036700066EED1CE27E245EE65EECDCE26E241EEF6
:1036800060EEC9CE27E245EE64EEC5CE26E241EEFD
:1036900062EEC1CE28E241E0EFCF063A3DE51307E6
:1036A00009F445CFD8F402369DE5190709F43FCF58
:1036B00006318CE5180709F095C18091E6038A7AF6
:1036C00091E009F490E090936A03882309F425C1FE
:1036D00085E30E94D10A0E946D12E2CEC8018E5A83
:1036E0009D45039728F723CF8091A5068062073078
:1036F0003CE5130799F108F4C0C08091A5068064E9
:103700002DC00D309CE5190709F4C5C098F48091CF
:10371000A5068E7F0B30FCE51F0701F18091A50601
:1037200088600C302CE5120708F49AC08091A50639
:103730008D7F14C00F303CE5130709F4BCC008F4BA
:10374000AEC000319CE5190709F4B9C08091A50607
:103750008F7B0131ECE51E0709F013CF8093A5069E
:1037600010CF0115FDE51F0709F4B7C0A0F50B3F09
:103770003CE5130709F47AC0C0F404319CE519074D
:1037800009F4B9C008F4A5C00531FCE51F0709F02C
:10379000F8CE8091A50682FB992790F921E0922727
:1037A00090FB82F990FB83F9D9CF0D3F2CE51207EE
:1037B00009F479C008F45DC00E3F8CE5180709F4E0
:1037C00076C08091A60682600F3F9CE5190709F03C
:1037D000D8CE81603CC00236EDE51E0709F496C0E4
:1037E00090F402302DE5120709F48EC008F479C078
:1037F00060E003308DE5180709F0C3CE8EE090E05D
:103800000E94242ABECE0E3A9DE51907E9F060F425
:103810009091A506892F8E7F90FF8160063AFDE585
:103820001F0709F49BCFADCE0F3A2DE5120779F1B2
:10383000003B3DE5130709F0A4CE9091A606892F21
:10384000877F93FF886003C08091A606886080937D
:10385000A60697CE8091A506826080CF8091A506AE
:1038600084607CCF8091A506886078CF8091A60681
:10387000B0CF8091A6068260EACF8091A5068061D4
:103880006DCF0E942F138091A506806867CF80912D
:10389000A606877FDCCF8091A5068B7F5FCF8091C6
:1038A000A506877F5BCF8091A6068E7FD0CF8091C3
:1038B000A6068D7FCCCF8091A5068F7E4FCF8091BD
:1038C000A5068F7D4BCF0E942F138091A5068F7781
:1038D00045CF8091A506877FE0CF8091A6068D7F9A
:1038E000E4CF8091A606982F909591708E7F892BBA
:1038F00090FB81F9ACCF0E942F139091A506892FE0
:1039000097FB87F980582ACF61E078CF9091A50680
:10391000892F8F7E94FF806121CF89E2DACE89E200
:103920008DC2033C9CE5190750F0073DECE51E07EE
:1039300008F4B6CD0E35FDE51F0709F4B1CDF7014A
:10394000828100811181882309F482C0C8010E940C
:10395000B40ED82E682FC8010E94430BB8018D2DDC
:103960000E94A60E0E9416098C01982EF701C280B3
:10397000B580B2943FE0B3228091C4038770C1F058
:10398000CC20A9F0812F807F803421F080E2800F4D
:10399000883070F08091A60682FF0AC082E00E9403
:1039A000E6128091C4038770AA24A3948111A12CEC
:1039B000D12ED2942FE0D222FBE0FD1508F419C1DC
:1039C000ED2DF0E0EA51F34E0C94F0292D1D2D1D44
:1039D000661D661DF21DF91DF91DF91D111E7B1EC8
:1039E0008C1E8C1E0B352DE5120771F158F4011554
:1039F0008CE5180791F00F3D1C4509F0A0CF0E94FF
:103A0000341709C00D35EDE51E07A1F0F8F0083AAE
:103A10001D4509F094CF0E940F160E942F133FE717
:103A20008AE196E0315080409040E1F700C000000C
:103A30000E940A0E8091A60682FB882780F991E0F9
:103A400089270E9402137BCF81E0FBCF80E0F9CF72
:103A5000C8010E940F0BD82E81CF212F2F70D22E9C
:103A6000107F19F0D29490EFD922802FCC20B9F09A
:103A7000DD2069F090E2900F983010F0011109C03C
:103A80008091E603D82AD092E6030E946D12802F1F
:103A900049C08091E503D82AD092E503F6CF0E9471
:103AA0003616DD2009F440C0005E083010F0911099
:103AB00004C08D2D0E949F0A06C0D0948091E5031A
:103AC000D822D092E5030E946D122EC0312F3F7094
:103AD000D32E107F103219F0D29480EFD822992083
:103AE00089F091E0991609F45FC0CC2009F469C00F
:103AF000BB2009F45FC0F701858180FFC8CF8F70BC
:103B0000858358C02091A60622FD2DC0CC2029F126
:103B1000DD2039F08091E603D82AD092E6030E9496
:103B20006D1280E00E948716AA2009F4C8CC80910B
:103B3000C40380FDC4CCF7011282859585958595D7
:103B40000E941E13C7010E94A5198091C403859588
:103B5000859585950E94D912B2CC80E00E943616D8
:103B6000DD2011F3A6CFCC2099F09091E7038D2DA5
:103B7000892BB11003C00E942C16D6CFE1E0BE12F3
:103B8000FACF22FFD1CF891779F28093E703CCCF08
:103B9000B11006C00E94990A8D2D0E942516C4CF2F
:103BA000F1E0BF1609F2F6CFCC2031F025E02B155D
:103BB00008F4BACF8D2DDFCF34E03B1508F4B4CF35
:103BC000EBCFBB2049F3093349F4FFEF23EF31E09A
:103BD000F15020403040E1F700C00000802F0E94EB
:103BE0003616A2CF812F86958695837041F081305D
:103BF00079F088EF8D0D843008F096CF3CC0C80175
:103C00009370C11002C090E080E00E94D1048CCF7C
:103C1000C8019370C11002C090E080E00E94BB0414
:103C200083CF812F837091F5C11025C0402F42951D
:103C300046954770440F440F802F8F70042E01C0AB
:103C4000880F0A94EAF720E004FF07C02FE030E075
:103C500001C0220F4A95EAF7209516951695137024
:103C6000123079F060F43091E803113039F0822B92
:103C700083230E942A130E94E70456CF832B822BB2
:103C8000F8CF282B8091E8038227F3CF8695CC20AC
:103C900011F0812F8170882371F3402F4295469552
:103CA0004770440F440F802F8F70042E01C0880F7F
:103CB0000A94EAF720E004FF07C02FE030E001C0DB
:103CC000220F4A95EAF72095169516951370123033
:103CD00069F050F430916C04113029F0822B832369
:103CE0000E94CF12C8CF832B822BFACF282B809132
:103CF0006C048227F5CF1F70CC2039F0812F0E94F1
:103D00001E13802F0E942C16B6CF802F0E942516DE
:103D1000812F0E94D912AFCF802F92EF9916E1F137
:103D2000991580F0E0EF9E16F1F0F1EF9F16A1F0EB
:103D3000CC2009F464C0BB2009F45EC0802F0E942F
:103D4000871657CF23EF921671F134EF9312F0CF0D
:103D50008091A60682FD32C0812F8F71CC2001F1A7
:103D60000E941E1346CFCC2091F084E08B1508F4FE
:103D700040CF1F7181E090E0012E01C0880F0A94AE
:103D8000EAF790916C0489270E94CF1232CF95E018
:103D90009B1508F42ECFEDCF812F8F71CC2001F32E
:103DA0000E94D91226CF80E0CC2071F31F7181E0F0
:103DB000012E01C0880F0A94EAF7E6CFCC2089F0E3
:103DC0001F71812F0E941E138091A60682FF07C0DB
:103DD000E8E01E9FC001112483608093C403812FFB
:103DE000BFCF81E00E94E612F1E0FB1508F001CFA1
:103DF00082E00E94E612FDCE812F8F71B1CFBB20F1
:103E000079F0893349F42FEF33EF81E021503040CE
:103E10008040E1F700C00000802F0E943616E9CEF6
:103E2000812F8F71BDCF0631FCE51F0709F079CDD9
:103E300080916A03882309F472CD85E30E94A70A62
:103E40004ACC0F931F93CF93DF9380919103807F90
:103E500009F051C080918E03882309F44CC08091F1
:103E6000C3031091920360918C0370918D03C091F4
:103E70008F03D091900321E06F3F09F020E006E02E
:103E80001817C9F131E0209721F0322F7F3F09F058
:103E900030E090E030FD34C0089FF001099FF00D44
:103EA0001124DF01AD56BC4F11963C911197371389
:103EB00027C03C91361324C012963C9112973111C1
:103EC0001FC013964D915C914C1B5D0B483C5105F6
:103ED000B8F4809191038F70806180939103E856CC
:103EE000FC4F80818F70806180838CE893E00E941A
:103EF000A5190E94050BDF91CF911F910F91089595
:103F000001968770BDCFA1E1B0E0E9E8FFE10C9434
:103F1000A0298C0185E0F801DE011D9601900D922B
:103F20008A95E1F7F801E28090918C0360918D030E
:103F300040918F035091900381E04115510531F07C
:103F40006F3F19F481E09F3F09F080E0F82FF17096
:103F50009F2E80FD29C1F80130812181C380D4804A
:103F60008CE8A82E83E0B82EF0908E03F601E41BB7
:103F7000F50BFF2009F4E3C080919103782F707F47
:103F8000E83CF10508F0A6C0711172C0FE2C621366
:103F900014C0931312C0E11010C08F708061809321
:103FA0009103C5010E94A51980919103F8018583B1
:103FB0008F2D6196EBE00C94BC2981E0C114D104F3
:103FC00031F02F3F19F481E03F3F09F080E080FDA0
:103FD00023C081E08E25F82FF170DF2E80FF3EC0D8
:103FE0008091C3034091920356E0841317C03D872C
:103FF0002E878D859E850E94E30E292F22952F7096
:10400000223000F1243028F59F7001F1F8019581EC
:10401000907FE1F4F92CCCCF80E0DDCF90E0589F89
:10402000F001599FF00D1124ED56FC4F61812613CC
:1040300006C06081361303C06281E6120FC001968C
:104040008770D3CF9F7011F0882321F3805E883072
:1040500008F3C8010E94A5199D2CDCCFEE2009F4BD
:10406000A7CF80919103816080939103F12CA0CF21
:10407000621306C0931304C0F801EE2009F479C05E
:10408000C8010E94F00E882309F1EE20F9F080911A
:104090009103803270F020918C0330918D0338872A
:1040A0002F831986DB86CA868C87CE0107960E94ED
:1040B000A51986E0F801ACE8B3E001900D928A956D
:1040C000E1F70E94211FFF24F39472CFC8010E94E0
:1040D000A519F9CF71110AC08CE893E00E94A519C7
:1040E00086E0F50111928A95E9F7C0CF62130FC0FF
:1040F00093130DC0E1100BC0F8018583C8010E9425
:10410000A51986E0F50111928A95E9F751CFC8010A
:104110000E94F00E8823D1F2EE20C1F2809191032B
:10412000803238F220918C0330918D033A832983B9
:104130001B82DD82CC828E83CE010196B8CFE83C13
:10414000F105F8F6FE2CEE2009F262131FC093135E
:104150001DC08091910380FD10C0982F907F69F061
:10416000F8018583903F31F0982F907F905F8F709A
:10417000892B8583C8010E94A51986E0F801ACE867
:10418000B3E001900D928A95E1F712CFC8010E9429
:10419000F00E81118ECF8091910381608093910305
:1041A000C8010E94A51904CFEE2009F48FCFC801E1
:1041B0000E94F00EF82E882309F488CF86E0F801DB
:1041C000ACE8B3E001900D928A95E1F780918C0301
:1041D00090918D030E94E30E0E94211FE9CEA7E17A
:1041E000B0E0E5EFF0E20C94A8294B8B5C8B6D8B73
:1041F0007E8B8F8B61111092E5031A8A198A85E0F4
:10420000FE017396DE011D9601900D928A95E1F7ED
:1042100086E0FE013D96DE01179601900D928A958B
:10422000E1F7CE0107960E94831F811137C086E017
:10423000FE013796DE01119601900D928A95E1F705
:104240009F8188852A853B85232B39F08F3F19F480
:1042500081E09F3F19F080E001C081E080FD1EC039
:104260002091920330E0C90101968770992740910F
:10427000C3034817190659F196E0929FD001939F06
:10428000B00D1124AD56BC4FFE01319601900D9238
:104290009A95E1F7809392030E94050B16E08091B6
:1042A000C303909192038917F9F0819FC0011124F3
:1042B0008D569C4F0E94831F8823B1F08091C303C9
:1042C00090E00196877099278093C303E8CF0E94FE
:1042D0002F13109292031092C30386E0ECE8F3E0F0
:1042E000DF011D928A95E9F76796E3E00C94C429F3
:1042F000ACE0B0E0EEE7F1E20C949D298E010F5F97
:104300001F4F8CE0F80111928A95E9F795EBE92EA1
:1043100091E0F92E680166246394712C39EC832EA8
:1043200031E0932EF70181917F018F3F09F445C061
:10433000F894E82FE295EF70F0E021A18F70A301CF
:1043400002C0440F551F8A95E2F7CA01922F982B9D
:1043500091A392A18095892382A3789400C0EBEB6E
:10436000F1E021E030E0B12CA12C41914F3F09F464
:1043700065C0A42FA295AF70B0E090968C9190E0AC
:104380004F7002C0959587954A95E2F780FD56C01B
:10439000C901A82AB92A220F331F8E169F0629F7B2
:1043A000F701319780818F3F11F00E94BC0850E5E2
:1043B0005A95F1F7F601B182A082F2E0CF0ED11C3E
:1043C0002BEBE21621E0F20609F0ACCF4CE050E016
:1043D000B8018EEE93E00E94482A892B89F08CE088
:1043E000F801AEEEB3E001900D928A95E1F781E01D
:1043F0008093EB030E9432199093EA038093E903C0
:104400001091EB0311111DC010E08091EC0390910D
:10441000ED03883E43E09407A4F11092ED0310925F
:10442000EC0387E191E00E949A1783E191E00E94FA
:104430009A17812F2C96EEE00C94B92990E080E039
:10444000A8CF8091E9039091EA030E942319059770
:10445000D8F24CE050E06EEE73E08AE094E00E9407
:10446000482A892B61F08CE0EEEEF3E0AAE0B4E09C
:1044700001900D928A95E1F71092EB03C6CF10E000
:10448000FBCF01969093ED038093EC03D2CF1F9264
:104490000F920FB60F9211248F939F93AF93BF93F8
:1044A0008091A006811113C08091A1069091A2066F
:1044B000A091A306B091A4064196A11DB11D8093C1
:1044C000A1069093A206A093A306B093A406BF9161
:1044D000AF919F918F910F900FBE0F901F901895E5
:1044E000A4E3B0E0E6E7F2E20C94992985B780688E
:1044F00085BF85B7806885BF84B7877F84BF0FB6C7
:10450000F894A89580916000886180936000109273
:1045100060000FBE80E891E00FB6F89480936100D0
:10452000909361000FBE8AEB98E0909349038093CB
:1045300048030E9433030E94FC038091E2008460E0
:104540008093E20078948091CF06882399F01091AF
:10455000E9001F708091EC0080FFF9C080E8182B03
:104560001092E9008091E80083FD0E9445131F70BE
:104570001093E90082E084BD93E095BD9DE797BD6F
:1045800080936E0005EB11E0D8018D918D018F3F76
:1045900011F00E94BC08B1E00B3B1B07A9F70BEB25
:1045A00011E0F80181918F018F3F11F00E94BC084A
:1045B000F1E0093C1F07A9F71CE0EAE0F4E0DF01A5
:1045C000212F1D922A95E9F7EEEEF3E0DF01212F6E
:1045D0001D922A95E9F70E940A281CA701E010E025
:1045E0009E01245D3F4F4AEF50E360E87FEB8BE193
:1045F00091E00E94550C97FD4CC01BA69E01255DC5
:104600003F4F42E154E362ED7FEB8BE191E00E948A
:10461000550C97FD3EC019821A821B821C829E0196
:104620002F5F3F4F48E054E362ED7FEB8BE191E079
:104630000E94C80B97FD2DC009811A812B813C81F6
:10464000016009831A832B833C8348E054E362EDC5
:104650007FEB8BE191E00E94A70C97FD1AC004E864
:1046600013E323E030E040E050E360E87FEB8BE1D0
:1046700091E00E94A70C97FD0CC004E813E324E02E
:1046800030E048E455EE62ED7FEB8BE191E00E9473
:10469000A70C1FEF10934A0180914B0190914C01A0
:1046A0000E94100D0E946C0D109318018091190149
:1046B00090911A010E94100D109314018091150120
:1046C000909116010E94100D809153019091540118
:1046D000A091550189839A83AB8380911B0124E6C5
:1046E00030E043E050E0BE016F5F7F4F880F0E94D3
:1046F000F02804E610E00E946C0D8FE19EE4019723
:10470000F1F700C0000001501109A9F70E947821BB
:10471000AFE1BEE41197F1F700C000000E947821DC
:1047200080910A0480FF15C06FEF7FEF80E490E076
:104730000E94422A6FEF82E490E00E94242A6FEFE9
:104740007FEF90E080E00E94422A0E940A0E80E003
:1047500006CF80E490E00E940E2A8C3E964739F402
:1047600082E490E00E94062A91E0823009F090E015
:10477000D12CC12CA12C90FF28C080E00E944D12AA
:1047800035C0F801EE0DFF1DEE0FFF1FE558FE4F7F
:1047900025913491402F6B2D8A2D0E944F0E0F5F73
:1047A0001F4F0E30110569F7EEE0EE0EF11CB394C9
:1047B000F6E0BF1619F010E000E0E3CFA39424E583
:1047C000C20ED11C34E0A31619F07601B12CF3CF40
:1047D00081E00E944D126CEE76E780E490E00E944A
:1047E000422A62E082E490E00E94242A80916C04D4
:1047F0000E948D0B90E080E00E940E2A883E9E4F22
:1048000011F00E94341782E090E00E94062A809303
:10481000FC030E9455119093A6068093A50683E0A1
:1048200090E00E94062A0E942A1380916C040E9444
:104830008D0B1092E3068FEF9FEF9093FD06809310
:10484000FC069093FF068093FE06909301078093E9
:1048500000079093030780930207909305078093C6
:1048600004079093070780930607909309078093A6
:10487000080790930B0780930A0710926F05909397
:1048800089058093880590938B0580938A05909382
:104890008D0580938C0590938F0580938E05909362
:1048A0009105809390059093930580939205909342
:1048B000950580939405909397058093960590E0D5
:1048C00080E00E940E2A883E9E4F21F00E943417FD
:1048D0000E94321246E050E06CE170E08DED96E00F
:1048E0000E94F62910929C058091DD068C7F11F4C0
:1048F0000E9432128CE191E090939D0680939C0679
:104900008091CF06853099F490E4F92EEE24E3945B
:1049100023E0D22E00E112E18091CF06853009F428
:10492000B3C00E942F130E94E70410929D050E94BD
:1049300078218DEF93E09EA78DA7AAE0B4E0B8ABF5
:10494000AFA7FC01219131918D919D9144E0E93017
:10495000F40709F4EAC028173907A1F307EF602E1E
:1049600001E0702E8AE094E09AAB89AB412C88E09C
:10497000382EA9A9BAA9CD90DD90BAABA9ABEDA507
:10498000FEA581919191FEA7EDA78C159D0509F4D7
:1049900072C19C012C253D253CAB2BABF12CE12CAD
:1049A000AA24A394B12C8BA99CA98A219B21892B91
:1049B00009F452C186010A211B21EEA24FA281E017
:1049C0000115110509F480E088A70E943219816061
:1049D000782F9AA789A74EA15FA168A58AA50E94F2
:1049E000EF20012B09F41CC1F301EE0DFF1D8081A6
:1049F0008F3F09F415C1582E22242394022D10E074
:104A000080916F05800F912F911D09976CF1F8E04F
:104A10008F2E912C801A910AB80160597A4FA40107
:104A200080E795E00E94552AB80168587A4FA401A2
:104A300088E795E00E94552AA401440F551FB8014C
:104A4000660F771F68577A4F88E895E00E94552ACD
:104A5000B80160587A4FA40180E895E00E94552A79
:104A6000832D821980936F0580916F0590E0A52DAD
:104A7000B0E09D01220F331F255B3D4FAA0FBB1FE6
:104A8000BD01645B7D4FE2C08091CF06843009F4A4
:104A900038C00E94631180919D0581110DC00E9454
:104AA000250F109241018091DD06837080934001B3
:104AB0000E942E0ED0924201E0929D051092A00617
:104AC000E8E1F0E00FB6F894A895E09360000FBE1F
:104AD000F092600083B7817F846083BF83B7816079
:104AE00083BF7894889583B78E7F83BF0FB6F89481
:104AF000A8958091600088618093600010926000AA
:104B00000FBE8091CE06882309F406CF0E9478213B
:104B1000EAE0F4E081919191892B09F065C226E1E8
:104B200034E02E173F07B1F7F7CE2817390709F001
:104B300015CF0E9432198C018091FA039091FB03EA
:104B400008171907A1F08FEF89A38AA31BA20E945F
:104B500032198160782F9DA38CA349A15AA16BA122
:104B60008DA10E94EF201093FB030093FA030E9493
:104B700063110E94E70490910904891769F08093FA
:104B800009048FB7F8944091A1065091A206609154
:104B9000A3067091A4068FBF8091CF06843009F0E0
:104BA000AFCE83E08093E9008091E80082FFA8CE39
:104BB0008091E80090E085FF0CC00E94520330E233
:104BC000E32EF12C8E010F5F1F4F882309F470C074
:104BD00091E08091E8008B778093E800992309F4B5
:104BE0008FCE81E08A83E981E150E33108F0ACC0E7
:104BF000F0E0E350FA4D0C94F02966266D267726F6
:104C0000A426A426A426A426A4267C268A269826A2
:104C1000E626082736275F278327A3279F27E8272D
:104C2000212CECCE90E0FC01E159FA4FD9015C91C6
:104C30005183DB015C915187518A880F991FFC01D8
:104C4000E159FA4F128E118E91E0842F41E0480F06
:104C5000921540F380936F05AA0CBB1CBFEFEB1AB3
:104C6000FB0AEEE0EE16F10409F09DCEEDA5FEA5DF
:104C70003297D182C0824394FEE06F0E711C26E011
:104C8000421277CE8FB7F8944091A1065091A206B8
:104C90006091A3067091A4068FBF69CF8091F10047
:104CA000D8018D938D01B1E0EB1AF10809F490CF92
:104CB0008091E80085FDF2CF8091E8008B778093AA
:104CC000E8000E945203882399F382CF86E78B8302
:104CD0008CEE8C8381E08D8308C04EE150E066E568
:104CE00071E0CE0103960E945E2A1A822DC04EE129
:104CF00050E068E671E0F5CF8B81843028F56C8157
:104D0000663010F54D814E30F8F40E94760E8E8399
:104D10009F83EBCF8B818430B8F46C816630A0F434
:104D20004D814E3088F42E813F810E944F0EDDCFA1
:104D30008B81803FE1F1813F09F444C0823F09F457
:104D400043C0E3E0833FA1F18091CF06843001F5B9
:104D50001091E9001F708091EC0080FF43C180E852
:104D6000182B82E08093E9008091E80080FF0DC05D
:104D700050E040E060E270E0CE0101960E948103C5
:104D80008091E8008E778093E8001F701093E9000F
:104D900080911704882309F4B3CD3FEF40E782E008
:104DA000315040408040E1F700C00000CECCE0E050
:104DB00026E0E29FF0011124E85DFE4F83818C83A1
:104DC00080EB89CFE1E0F4CFE2E0F2CF8B819C81F0
:104DD000913B08F090EB803FA9F0813FA9F0823F22
:104DE000A9F0E3E0833F09F0AFCF36E0E39FF001A5
:104DF0001124E85DFE4F93831A8280916C040E9417
:104E00008D0BA2CFE0E0F1CFE1E0EFCFE2E0EDCF1C
:104E10008B81843558F0803FC1F0813F19F1823F8A
:104E200019F1833F09F090CFE3E010C090E0FC015E
:104E3000EE0FFF1FE80FF91FE259FB4F81818C83B2
:104E400080818D8382818E8350CFE0E046E0E49FB5
:104E5000F0011124E85DFE4F81818C8382818D8376
:104E60001E8243CFE1E0F2CFE2E0F0CFEB818D8113
:104E70009C812E81E43558F0E03F99F0E13FD9F074
:104E8000E23FD9F0E33F09F05FCFE3E00BC0A3E0DE
:104E9000EA9FF0011124E259FB4F80839183228322
:104EA00024CFE0E0B6E0EB9FF0011124E85DFE4F77
:104EB00091838283A1CFE1E0F5CFE2E0F3CFEB81F4
:104EC000E43008F041CF2E2F30E046E0E49FF001BF
:104ED0001124E85DFE4F908196959695E9ECF1E0FE
:104EE00080E0419194130BC08C8386E0829FF00197
:104EF000839FF00D1124E85DFE4F8481ECCE8F5F1F
:104F00008F3079F721CFEB81AC812D81E43008F02F
:104F10001BCFAF3008F018CF86E0E89FF0011124D6
:104F2000E85DFE4FB0E0A753BE4F8C91982F990FCC
:104F3000990F80818370892B808324835DCF81E0EA
:104F40000E944D12D2CE86E08B838EE08C8316E0D9
:104F5000A0E0B4E050E040E0B03218F5EE24E39475
:104F6000F12CEC0EFD1EEB0EF11C81E090E00A2E00
:104F700001C0880F0A94EAF7F7010081EFA5F8A9AC
:104F80006081718121E030E0042E02C0220F331FC6
:104F90000A94E2F726233723232BB9F0802BF7015D
:104FA0008083AF5FA83010F0BF5FA0E04F5F5F4F1E
:104FB0004E30510589F611502FA538A92E5F3F4F6D
:104FC00038AB2FA71111C6CF90CE80958023E7CFA5
:104FD0000E942F1381E09B81911101C080E080939A
:104FE000160483CE80E0BCCE09BD19BD09B400FE15
:104FF000FDCF8091D8008F7D8093D8008091E00014
:1050000082608093E0008091E00081FDFCCF0E94EF
:105010002F1382CC1092B90080E28093B8000895DB
:10502000B0E0A0E0E6E1F8E20C94A029B82EEB0194
:105030000E9432196C01EE24E394F12CC431D105A5
:1050400060F025E0E22EF12CCF3FDC0731F0CE01FD
:1050500064E170E00E9485297B0184EAA82E94E82F
:10506000992E1092BC00A092BC000E9432198C01B3
:105070008091BC0087FF0DC08091B900887F883087
:10508000F9F08091B900887F8031D1F00FEF1FEFE8
:1050900008C0C8010E942319E816F90648F70EEF68
:1050A0001FEFCF3FDC07E9F2C6010E942319C817A2
:1050B000D907B8F6C801CDB7DEB7EBE00C94BC2930
:1050C000B092BB009092BC000E9432198C0180917A
:1050D000BC0087FF0AC08091B900887F883111F039
:1050E0008034A1F610E000E0E5CFC8010E9423194A
:1050F000E816F90660F7D3CF0F931F93CF93DF9392
:10510000EB018093BB0084E88093BC000E943219BD
:105110008C018091BC0087FF11C02091B900287FCD
:1051200081E090E0283211F490E080E09195819543
:105130009109DF91CF911F910F910895CF3FDC0727
:1051400041F3C8010E942319C817D90710F78EEF41
:105150009FEFEFCF0F931F93CF93DF93EC0184EC7E
:105160008093BC000E9432198C018091BC0087FFA3
:1051700008C08091BB0090E0DF91CF911F910F910B
:105180000895CF3FDC0789F3C8010E942319C8178F
:10519000D90758F78EEF9FEFEFCF0F931F93CF9361
:1051A000DF93EC0184E88093BC000E9432198C01EB
:1051B0008091BC0087FF08C08091BB0090E0DF9128
:1051C000CF911F910F910895CF3FDC0789F3C8015C
:1051D0000E942319C817D90758F78EEF9FEFEFCF1A
:1051E000B0E0A0E0E6EFF8E20C94A3296B018A019D
:1051F0007901B9010E941028E6010C0D1D1DC01790
:10520000D10711F097FF08C024E92093BC00CDB767
:10521000DEB7E8E00C94BF29B70189910E947C2891
:10522000EECFB0E0A0E0E7E1F9E20C94A329C62FAD
:105230006A017901B8010E94102897FD0CC0B801DD
:105240008C2F0E947C28E601EC0CFD1CCE15DF059E
:1052500011F097FF08C024E92093BC00CDB7DEB75A
:10526000E8E00C94BF29B80189910E947C28EECF18
:10527000B0E0A0E0EEE3F9E20C94A329F82EE62ECC
:10528000EA016901B8010E94102897FD15C0B80114
:105290008E2D0E947C2897FD0FC0B8018F2D816054
:1052A0000E941028F12CE12C21E0C21AD108EC1444
:1052B000FD04E0F497FF0DC024E92093BC0018160C
:1052C000190614F490E080E0CDB7DEB7E8E00C9466
:1052D000BF29C8010E94AA2897FD04C0FE01EE0D57
:1052E000FF1D80832FEFE21AF20AE1CF97FDE4CF92
:1052F000C8010E94CD2897FDDFCFCC0DDD1D88832E
:10530000DBCF84E98093BC000895AA1BBB1B51E14D
:1053100007C0AA1FBB1FA617B70710F0A61BB70B25
:10532000881F991F5A95A9F780959095BC01CD01CA
:1053300008952F923F924F925F926F927F928F9239
:105340009F92AF92BF92CF92DF92EF92FF920F9314
:105350001F93CF93DF93CDB7DEB7CA1BDB0B0FB61E
:10536000F894DEBF0FBECDBF09942A8839884888DB
:105370005F846E847D848C849B84AA84B984C88471
:10538000DF80EE80FD800C811B81AA81B981CE0F68
:10539000D11D0FB6F894DEBF0FBECDBFED0108954D
:1053A000991B79E004C0991F961708F0961B881F77
:1053B0007A95C9F78095089597FB072E16F4009407
:1053C00007D077FD09D00E94852907FC05D03EF45F
:1053D000909581959F4F0895709561957F4F0895A1
:1053E000EE0FFF1F0590F491E02D0994DC01CB0135
:1053F000FC01F999FECF06C0F2BDE1BDF89A3196E5
:1054000000B40D9241505040B8F70895F999FECF7D
:1054100092BD81BDF89A992780B50895A8E1B0E0C2
:1054200042E050E00C94F829DC01A40FB51F415074
:10543000504048F0CB01840F951F2E910E94252AE1
:1054400041505040D0F70895262FF999FECF92BDD4
:1054500081BDF89A019700B4021639F01FBA20BD39
:105460000FB6F894FA9AF99A0FBE08950396272F6B
:105470000E94252A0E94242A252F0E94252A242FB3
:105480000C94252A0196272F0E94252A0C94242A61
:10549000FB01DC0104C08D910190801921F4415081
:1054A0005040C8F7881B990B0895FB01DC0102C02E
:1054B00001900D9241505040D8F70895FB01DC0156
:1054C0004150504048F001900D920020C9F701C0B2
:0E54D0001D9241505040E0F70895F894FFCF30
:1054DE001B01190000001B010A0000001B011D002A
:1054EE000000B050000001520006012DB804CA0D94
:1054FE00B704C50DC00DB604158EFFB07F04358EF2
:10550E00FFB07F04358EFFB07F04358EFFB07F0471
:10551E00FFFF0339050100FF0051000C0199370010
:10552E008EFFB0AA560073797374656D37362F6C83
:10553E0061756E63685F3100302E372E3130332D3A
:10554E0031303932392D676633396137382D646918
:10555E0072747900818283E200E900EA00B500B638
:10556E0000B700CD008301CC008A01920194012185
:10557E0002230224022502260227022A02B300B4C5
:10558E00006F007000F0F1F4F5F6F79767663635A8
:10559E00349694C69593923730010E020304060793
:1055AE000508090A0B0C0D0002070406030902097F
:1055BE00040303080203030340226D3B011901ACEF
:1055CE00002D054605660545464748494A4B4C4D54
:1055DE004E4F50515244434241403F3E3D3C3B3A78
:1055EE003938372728292A2B2C2D2E2F30313233BC
:1055FE0034262524232221201F1E1D1C1B1A530C6A
:10560E000B0A09080706050403020100360D0E0FEA
:10561E001011191213141516171835D133BE33ABDA
:10562E00339C338C337D336E335F335033413331A0
:10563E003322330B3308401B402A40394050406E12
:10564E004085409440A740C240D140E040E026C58E
:10565E0026B226A326942685267626672657264822
:10566E002639262A261B260826041A171A261A3524
:10567E001A441A541A631A721A811A901A9F1AAF80
:10568E001ABE1ACD1AE01AE00DC90DB60DA70D9867
:10569E000D890D790D6A0D5B0D4C0D3D0D2E0D1EF8
:1056AE000D0F0D000D00000F001E002E003D004CD2
:1056BE00005B006A00790089009800A700B600C957
:1056CE0000E00004040404040404040404040404B8
:1056DE00040404040404040404040404040404047C
:1056EE00040404040404040404040404040404046C
:1056FE00040404040404040404040404040404045C
:10570E00040404040404040404040404040404044B
:08571E00040404040404040067
:10572800040000001400000003000000474E55006C
:105738007A37F94F0600991825A487E45F8241A2B9
:045748001E88A47F94
:00000001FF
