:100000000C94F9020C9440030C9440030C944003AC
:100010000C9440030C9440030C9440030C94400354
:100020000C9440030C9440030C94B4230C94782358
:100030000C94082F0C9440030C9440030C94400340
:100040000C9440030C9440030C9440030C94400324
:100050000C9440030C94E22E0C9440030C94400347
:100060000C9440030C9440030C9440030C94400304
:100070000C9440030C9440030C9440030C944003F4
:100080000C9440030C9440030C9440030C944003E4
:100090000C9440030C9440030C9440030C944003D4
:1000A0000C9440030C9440030C9440030501098018
:1000B000A101850319012AB700150126B700950192
:1000C00075108100C0050C0901A101850419012AE0
:1000D000A002150126A002950175108100C005013E
:1000E0000906A1018505050719E029E71500250185
:1000F0009508750181020507190029EF15002501F2
:1001000095F075018102050819012905950575010C
:100110009102950175039101C00660FF0961A1017B
:100120000962150026FF00952075088102096315F4
:100130000026FF00952075089102C005010906A15F
:1001400001050719E029E7150025019508750181CA
:10015000029501750881010507190029FF15002680
:10016000FF00950675088100050819012905950508
:1001700075019102950175039101C0000101010112
:100180000101010101020202020202020202030352
:100190000303030303030404040404040405050522
:1001A00005050606060606070707070708080808E4
:1001B000090909090A0A0A0B0B0B0C0C0C0D0D0D91
:1001C0000E0E0E0F0F0F1010111111121213131427
:1001D00014151516161717181819191A1A1B1B1C9F
:1001E0001D1D1E1E1F2020212222232424252626F9
:1001F000272829292A2B2C2D2D2E2F30313232332E
:100200003435363738393A3B3C3D3E3F4041424336
:100210004445464748494A4C4D4E4F50515354551A
:100220005658595A5B5D5E5F616264656668696BCA
:100230006C6D6F7072737577787A7B7D7E80828348
:100240008587888A8C8E8F91939596989A9C9EA08C
:10025000A2A3A5A7A9ABADAFB1B3B5B7BABCBEC099
:10026000C2C4C6C9CBCDCFD1D4D6D8DBDDDFE2E462
:10027000E7E9EBEEF0F3F5F8FAFDFF29003A003B71
:10028000003C003D003E003F004000410042004372
:1002900000440045004C0035001E001F00200021D6
:1002A000002200230024002500260027002D002E18
:1002B000002A002B0014001A000800150017001C6B
:1002C0000018000C00120013002F00300031000055
:1002D0000704001600070009000A000B000D000EBD
:1002E000000F003300340028004A00E1001D001B0D
:1002F0000006001900050011001000360037003814
:1003000000E50052004B00E000E3000151E2002C48
:10031000004D002C00E400E6000151500051004F58
:10032000004E00005C01000100010001000100011D
:1003300000010001000100010001000100010001B5
:1003400000010001000100010001000100010001A5
:10035000000100C35CCB5CCA5C01004600010001E7
:1003600000C65C010001004A004E004B004D000138
:1003700000010001000100010001000100C75C0153
:100380000001005000510052004F00010001000127
:1003900000AE0001000100010001000100010001A8
:1003A0000001000100010001000100C45CA900017E
:1003B000000100010001000100A80001000100018E
:1003C000000100CD5CC55CCC5CAA0001000100010D
:1003D0000001000100010001000100010001000115
:1003E0000001000100010001000100010001000105
:1003F00000010001000100010001000100010001F5
:1004000000010001000100010001000100010001E4
:1004100000010001000100010001000100010001D4
:1004200000010001000100010001000100010001C4
:1004300000010001000100010001000100010001B4
:1004400000010001000100010001000100010001A4
:100450000001000100010001000100010001000194
:100460000001000100010001000100010001000184
:100470000001000100010001000100010001000174
:100480000001000100010001000100010001000164
:100490000001000100010001000100010001000154
:1004A0000001000100010001000100010001000144
:1004B0000001000100010001000100010001000134
:1004C0000001000100010001000100010001000124
:1004D0000001000100010001000100010001000114
:1004E0000001000100010001000100010001000104
:1004F00000010001000100010001000100010001F4
:1005000000010001000100010001000100010001E3
:10051000000100010001000100010009025B00036D
:100520000100A0FA090400000103010100092111E2
:100530000100012240000705810308000A090401A7
:10054000000203000000092111010001222200071E
:1005500005820320000107050303200001090402AE
:10056000000103000000092111010001226D0007B4
:1005700005840320000A12011001000000088433E2
:10058000010001000102000150034C0061007500F0
:100590006E0063006800200043006F006E0066007C
:1005A0006900670075007200610062006C00650000
:1005B00020004B006500790062006F00610072004E
:1005C0006400200028006C00610075006E0063006C
:1005D00068005F0031002900000012035300790019
:1005E0007300740065006D003700360000000403DE
:1005F000090411241FBECFEFDAE0DEBFCDBF04B681
:1006000003FE27C08091000790910107A091020787
:10061000B09103078730904BA740B04BD1F41092B4
:10062000000710920107109202071092030714BEF0
:1006300084B7877F84BF0FB6F894A8958091600037
:10064000886180936000109260000FBEE0E0F8E3E4
:10065000099527E0A0E4B3E001C01D92A030B207E5
:10066000E1F713E0A0E0B1E0E2E4F1E602C00590BA
:100670000D92A034B107D9F70E948A240C949F30C0
:100680000C940000E8EDF0E080818E7F8083109272
:10069000E2001092DA001092E100A0EEB0E08C913E
:1006A00081608C9380818F77808319BCA7EDB0E047
:1006B0008C918E7F8C9380818F7E808310929806A0
:1006C00008952091E4003091E50085E69091EC00DA
:1006D00090FF06C09091E80090FF06C080E008956A
:1006E0009091E80092FDFACF9091BD06992391F088
:1006F000953091F09091EB0095FD10C04091E40091
:100700005091E5002417350709F381509A01F1F65D
:1007100084E0089582E0089583E0089581E00895DB
:10072000EF92FF920F931F93CF937C018B010E9456
:100730006103C82F811117C08091E80085FD0BC0AF
:100740008091E8008E778093E8000E9461038823FF
:1007500099F3C82F08C0F70181917F018093F100C0
:100760000150110949F78C2FCF911F910F91FF90E4
:10077000EF9008958091BF0687FF13C08091E80035
:1007800082FF06C08091E8008B778093E80004C068
:100790008091BD068111F2CF08958091BD06882316
:1007A000D9F38091E80080FFF8CF8091E8008E7740
:1007B000ECCF982F9093E900242F762F50E08917E3
:1007C00031F07091EC002091ED005091F00021FD8E
:1007D00007C09F5F973071F78093E90081E008952B
:1007E0003091EB003E7F3093EB003091ED003D7F88
:1007F0003093ED003091EB0031603093EB0070935B
:10080000EC002093ED005093F0002091EE0027FDC6
:10081000E0CF80E00895CF92DF92EF92FF920F93A6
:100820001F93CF93DF93C8EDD0E088818F7E8883BC
:10083000E7EDF0E080818160808384E082BF81E029
:100840008093980688818E7F888302EE10E0F801FD
:1008500010821092DA0081EEC82ED12CF60110829F
:1008600088818F77888388818068888388818F7D5D
:10087000888319BC1092BD061092BE061092BC0669
:100880001092BB0690EEE92EF12CF70180818B7F50
:10089000808388818160888342E060E080E00E94FC
:1008A000D903F60180818E7F8083F8018081816089
:1008B0008083808188608083F70180818E7F808340
:1008C000888180618883DF91CF911F910F91FF9084
:1008D000EF90DF90CF900895FC018091C506909134
:1008E000C60686179707A0F06115710529F4909147
:1008F000E8009E779093E80090E06115710551F44F
:10090000911108C08091E80082FF35C080E0089511
:10091000BC01F2CF8091BD068823C9F18530C9F1B1
:100920008091E80083FD31C08091E80082FDEACF2C
:100930008091E80080FFE1CF2091F3008091F200E8
:10094000322F282F6115710519F02830310558F024
:1009500091E02830310509F090E02091E8002E77F1
:100960002093E800CACF81918093F1006150710912
:100970002F5F3F4FE7CF8091BD06882341F0853040
:1009800041F08091E80083FFBDCF81E0089582E0CF
:10099000089583E00895EF92FF920F939701201B33
:1009A00031092F3F310519F010F02FEF30E020957D
:1009B000382F320F08F43FEF832F0F91FF90EF9005
:1009C0000895EF92FF920F939701201B31092F3F5B
:1009D000310519F010F02FEF30E0322F3095482F0D
:1009E000430F08F44FEF842F620F0F91FF90EF90A9
:1009F0000895EF92FF920F93972F093438F4B701BF
:100A0000601B71096F3F710519F010F06FEF70E016
:100A1000485F5F4F4131510540F0A901485F5F4F8A
:100A20004131510510F06FEF70E06095482F460F8F
:100A300008F44FEF842F37FF02C02D5F3F4F3595ED
:100A40002795359527956091F506620F792F0F91BF
:100A5000FF90EF900895EF92FF920F931F93E00E97
:100A6000F11C890137FF03C011950195110924E09C
:100A7000000F111F2A95E1F70F3F110519F014F02F
:100A80000FEF10E09A0157FF03C03195219531090E
:100A900094E0220F331F9A95E1F7201731070CF4E9
:100AA00089010E0D1F1D0F3F110519F010F00FEFFA
:100AB00010E00095282F200F08F42FEF822F1F91B0
:100AC0000F91FF90EF900895EF92FF920F9397018F
:100AD00095E0099F200D311D11242F3F310519F09C
:100AE00010F02FEF30E02095382F320F08F43FEF51
:100AF000832F0F91FF90EF90089522E8241B08F4B4
:100B000020E0620F08954095282F429F412D112427
:100B1000842F08950F931F9310E0F801EE0FFF1F2D
:100B2000ED5BFD4F9081905797FD9195000F111F40
:100B3000F801EC5BFD4FE081E052FF0B8F01000FED
:100B4000111F0E0F1F1F2003F001219FF00D112414
:100B500028E330E0291B310997FD3395D901AA0F0D
:100B6000BB1F2A0F3B1F4203D001439FB00D11242E
:100B70009F012A0F3B1F37FF02C021583F4F220F12
:100B8000232F221F330B620F1F910F9108950F9394
:100B90001F93522F10E0F801EE0FFF1FEC5BFD4F8B
:100BA000A081A052BB0BAA0FBB1F9D015203F001F5
:100BB000539FF00D1124000F111FD801AD5BBD4FE5
:100BC0000C910057110B000F111F40039001419F22
:100BD000300D11242E0F3F1F37FF02C021583F4F09
:100BE000220F232F221F330B620F1F910F910895A5
:100BF0000F931F93522F10E0F801EE0FFF1FEC5BD5
:100C0000FD4FA081A052BB0B9D015203F001539FE9
:100C1000F00D1124000F111FD801AD5BBD4F0C91D9
:100C20000057110B40039001419F300D11242E0FEE
:100C30003F1F37FF02C021583F4F220F232F221F93
:100C4000330B620F1F910F910895EF920F93972F1F
:100C500023E0029FB0011124759567956E0D792FE1
:100C60000F91EF900895322F50E0FA01EE0FFF1F21
:100C7000EC5BFD4F9081905297FD9195440F551F6D
:100C8000FA01ED5BFD4F2081231B330B290F311D32
:100C900097FD3A95620F0895E42FF0E0EE0FFF1FE5
:100CA000EC5BFD4F6081621B0895E42FF0E0EE0FD6
:100CB000FF1FED5BFD4F6081621B0895622F089559
:100CC000E42FF0E0EE0FFF1FED5BFD4F408134EEAF
:100CD000439F412D1124E82FF0E050E0445E5F4F28
:100CE000DA01A21BB1099D01B7FF03C0319521951F
:100CF000310993E0220F331F9A95E1F7AF01421BB0
:100D0000530B9A0157FD20E0582F259F212D1124C8
:100D1000822F0895E42FF0E0EE0FFF1FED5BFD4FF3
:100D2000408134EE439F412D1124E72FF0E050E045
:100D3000445E5F4FDA01A21BB1099D01B7FF03C0FA
:100D400031952195310993E0220F331F9A95E1F7F0
:100D5000AF01421B530B9A0157FD20E0279F212D25
:100D60001124722F089580E00895089580919A06C5
:100D700008952FB7F8948091F9069091FA06A09102
:100D8000FB06B091FC062FBF08958091DD04811110
:100D90001092DD0408958091DC049091DB04892B8E
:100DA0009091DA04892B809342039091DD0499237A
:100DB000A1F0892B8093420380914801882341F15F
:100DC0008091EE0487FF24C08EE1E4E4F3E090E03C
:100DD000815000F591110E94C506E091F004F09158
:100DE000F1043097E1F080914801882359F0809117
:100DF000EE0487FF07C0809142038093430385E0A0
:100E0000809342030280F381E02D82E493E0099411
:100E100086E0DBCF21912223D9F29F5FD9CF0895BD
:100E2000909148019923D1F09091EE0497FF16C05C
:100E3000E82FE695E695E695EE31D8F4F0E0EE5B26
:100E4000FC4F282F277081E090E001C0880F2A9581
:100E5000EAF780959281892382830895E2E4F3E0A2
:100E60009281891301C01282319693E0E834F90728
:100E7000B9F70895909148019923C1F09091EE043B
:100E800097FF14C0E82FE695E695E695EE31F8F465
:100E9000F0E0EE5BFC4F877021E030E001C0220FF4
:100EA0008A95EAF78281822B82830895A4E4B3E0D5
:100EB000EFEF90E02D91821751F0EF3F19F42111DF
:100EC00001C0E92F9F5F9630A9F7EF3F09F408951D
:100ED0000E2E000CFF0BEE5BFC4FE6CF2EE0929F38
:100EE000800D1124982F977086958695869525E01C
:100EF000829FA001112470E060E080E0FA01E60F1B
:100F0000F71FEE55FB4F208130E0092E02C03695C9
:100F100027950A94E2F721703327062E01C0220F8D
:100F20000A94EAF7822B6F5F7F4F6530710531F7C6
:100F300008952EE0929F800D1124982F977071E0F4
:100F400001C0770F9A95EAF786958695869525E0F4
:100F5000829FC001112450E040E0A62FB0E0FC01C8
:100F6000E40FF51FEE55FB4F60819D01042E02C07A
:100F7000369527950A94E2F7217021952627272395
:100F8000262720834F5F5F4F4530510541F7089575
:100F90008091A10490917004981301C008958F5F0F
:100FA0008770FACF882341F080959091DC048923E3
:100FB0008093DC040C94CB060895882339F090913B
:100FC000DC04892B8093DC040C94CB0608952091DB
:100FD0006504309166042817390771F09093660410
:100FE00080936504E091F004F091F104309721F0D2
:100FF0000084F185E02D09940895209163043091D7
:1010000064042817390771F0909364048093630493
:10101000E091F004F091F104309721F00680F7811F
:10102000E02D0994089590E080E00E94FD0790E093
:1010300080E00E94E7071092DB041092DA040C941F
:10104000CB066093DE047093DF048093E0049093FA
:10105000E1040C941308E091F004F091F10430974E
:1010600021F00190F081E02D099480E0089588231B
:1010700009F452C0823871F40E942B0881FF4CC0E1
:1010800089E30E943A070E94CB0689E30E94100779
:101090000C94CB06833859F40E942B0880FF3CC087
:1010A00083E50E943A070E94CB0683E5EFCF8438A0
:1010B00059F40E942B0882FF2FC087E40E943A0750
:1010C0000E94CB0687E4E2CF9CEF980F913AF0F2B2
:1010D00090E2980F983088F4877021E030E0A90101
:1010E00002C0440F551F8A95E2F7CA01809590917E
:1010F000DC0489238093DC04CBCF9BE5980F9330ED
:1011000020F490E080E00C94FD07885A873120F4A9
:1011100090E080E00C94E7070895E7E6F3E094E0C0
:10112000E336F90709F40895818360834283339697
:10113000F6CFFC01EE0FFF1FE80FF91FE959FC4F36
:101140006183408322830895BC019FEF613E8EE15D
:10115000780740F49B0195E0369527959A95E1F73D
:1011600098E0920F41E0E42FE90FFF27FF1F9F0156
:1011700035952795822F229FF001239FF00DF00DCA
:1011800011246E177F0738F49FEF920F941758F7CA
:101190008FEF840F08952F3FE9F341E0420FF6CF20
:1011A0000F93CF93DF93D72FC82F47FD419588E347
:1011B00090E0BC01641B710947FD7395669FC001F7
:1011C000679F900D900D1124229FB001239F700DF9
:1011D000700D1124860F971F8230910510F00E9428
:1011E000A408682F660F860F682F600F7D2F8C2F45
:1011F000DF91CF910F9108950C948D080C9499086C
:10120000FC019B01009721F477FD2BC080E008953D
:10121000AC0197FF04C044275527481B590BB9015F
:10122000640F751F37FD10C0241B350BC901A5E0E5
:10123000880F991FAA95E1F70E94452F80E2861B2F
:10124000F7FF10C081950895CB0165E0880F991FC5
:101250006A95E1F7BA01621B730B0E94452F80E685
:10126000EECF80E80895EF920F93CF93DF93D72FBF
:10127000C82FC9010E19BA010E940009602F681B0E
:101280007D2F8C2FDF91CF910F91EF9008950F93C9
:10129000CF93DF93D72FC82FC901BA010E9400094D
:1012A000682F600F7D2F8C2FDF91CF910F910895C4
:1012B000EF920F931F93CF93DF93D62FC72F182F43
:1012C000C9010E19010FBA010E940009081B202F45
:1012D000219F212D1124822F6D2F7C2FDF91CF9103
:1012E0001F910F91EF900895EF920F931F93CF935B
:1012F000DF93D62F172FC82FC9010E19070FBA0178
:101300000E940009702F781B719F712D11246D2F81
:101310008C2FDF91CF911F910F91EF9008950F9334
:101320001F93CF93DF93D62FC72F182FC901212FDB
:10133000201B022FBA010E940009982F990F990FC4
:10134000891B800F282F219F212D1124822F6D2F83
:101350007C2FDF91CF911F910F9108950F931F93D1
:10136000CF93DF93D62F172FC82FC901272F201B0C
:10137000022FBA010E940009982F990F990F782F18
:10138000791B700F719F712D11246D2F8C2FDF91A0
:10139000CF911F910F910895E82F86FDE0952E2F94
:1013A0002F7086FD2F5FE695E695E695E670F0E0F6
:1013B000EC58FE4F9181929F902D212D11249295F2
:1013C0009F702295207F922B2081920F87FD91950F
:1013D00080E8890F089530E020E0869F212D969FB8
:1013E000200D311D1124C9010895AF92BF92CF92F3
:1013F000DF92EF92FF920F931F93CF93DF939B01A6
:10140000E82FF0E0E558FE4F31110FC0E4918E2F28
:101410007E2F6E2FDF91CF911F910F91FF90EF9054
:10142000DF90CF90BF90AF900895032F10E0E4912C
:10143000FE2FEE2EF12C46E0649FC0011124CFEF69
:10144000D0E0BE010E94312FAB01822F90E0880FC7
:10145000991F25E5249FB001259F700D1124861B3F
:10146000970B982F990F980FBE01601B710B6E9D03
:10147000D0016F9DB00D7E9DB00D11248B2F399F33
:1014800090011124232F3327BE01621B730B6E9D25
:1014900090016F9D300D7E9D300D1124732F5E01E4
:1014A000A91AB108A09E6001A19ED00CB09ED00CDC
:1014B0001124CD2CDD24CC19DD09CE9D8001CF9DDA
:1014C000100DDE9D100D112442305105B1F058F47D
:1014D0004115510579F04130510509F49ACF7E2F1D
:1014E000EB2F832F96CF4430510571F048F04630F2
:1014F0005105A9F77E2FE12F8CCF7B2F812F89CF2C
:10150000E32F7B2F8F2F85CF712FEB2FFBCF2F92C8
:101510003F924F925F926F927F928F929F92AF9283
:10152000BF92CF92DF92EF92FF920F931F93CF93D0
:10153000DF933C01C091490181E1C89FC02D112476
:1015400011E11C0FF12E153510F034E5F32E6091EA
:10155000F80666958091F0069091F1060E94EB09DD
:10156000582ED0E0CE01880F991F9C0121513E4F8B
:101570006901CF15B8F081E0143508F080E0DF9103
:10158000CF911F910F91FF90EF90DF90CF90BF9080
:10159000AF909F908F907F906F905F904F903F9013
:1015A0002F900895FE01E551FD4F808190914A01F1
:1015B0008923C9F1F601EC5AFF4F8081E82FE057EB
:1015C000FF0B5F01F601EB5AFF4F8081282F20525D
:1015D000330B4901AA9CC001AB9C900D900D1124C6
:1015E000889C9001899C300D300D1124820F931F2F
:1015F0008230910510F00E94A4082090F5063090EA
:10160000F6064090F706E52C082F9401A501842DDD
:10161000B101F30109950E94F509462F282F672F84
:10162000CE010E94FE082196F2E0CF0ED11CA1CF80
:10163000AF92BF92CF92DF92EF92FF920F931F93E0
:10164000CF93DF936C01C091490181E1C89FC02D08
:10165000112411E11C0FB12E153510F034E5B32E15
:101660006091F80666958091F0069091F1060E94CF
:10167000EB09A82ED0E0CE01880F991F9C012D5BAD
:101680003D4F7901CB1578F081E0143508F080E00A
:10169000DF91CF911F910F91FF90EF90DF90CF904E
:1016A000BF90AF900895FE01E551FD4F808190916C
:1016B0004A018923C1F0F70121812052330B408177
:1016C0004057550B6091F5067091F6068091F7062C
:1016D0000A2DF60109950E94F509462F282F672F3C
:1016E000CE010E94FE08F2E0EF0EF11C2196CACF57
:1016F000DF92EF92FF920F931F93CF93DF937C01C2
:10170000C091490181E1C89FC02D112411E11C0F36
:10171000012F153508F004E56091F8066695669589
:101720008091F0069091F1060E94EB09D82ED0E04E
:10173000C01760F081E0143508F080E0DF91CF91B0
:101740001F910F91FF90EF90DF900895FE01E551FA
:10175000FD4F808190914A01892391F06091F506B7
:101760007091F6068091F7062D2D4C2FF701099503
:101770000E94F509462F282F672FCE010E94FE08F0
:101780002196D6CF9F92AF92BF92CF92DF92EF92E7
:10179000FF920F931F93CF93DF936C01C091490188
:1017A00081E1C89FC02D112411E11C0FB12E153508
:1017B00010F034E5B32E6091F80666956695809139
:1017C000F0069091F1060E94EB09F82E80E48F0D4F
:1017D0000E94CC0990E8A92EA80E8F2D0E94CC095A
:1017E00020E8922E980ED0E0CB1580F081E01435E1
:1017F00008F080E0DF91CF911F910F91FF90EF9063
:10180000DF90CF90BF90AF909F900895FE01E5517B
:10181000FD4F808190914A018923A1F06091F506E6
:101820007091F6068091F706EF2C0C2F292D4A2D8A
:10183000F60109950E94F509462F282F672FCE0142
:101840000E94FE082196D0CFCF92DF92EF92FF92B6
:101850000F931F93CF93DF937C01C091490181E1E6
:10186000C89FC02D112421E1D22EDC0ECD2C84E5A1
:101870008D1510F494E5C92E2091F80630E050E063
:1018800040E06FEF7FEF80E090E00E943C30890104
:10189000D0E04C2FCC1570F081E0F3E5FD1508F495
:1018A00080E0DF91CF911F910F91FF90EF90DF903B
:1018B000CF900895FE01E551FD4F808190914A013E
:1018C000892311F19091C7069150E92F092E000C40
:1018D000FF0BE953F94F97FF19C098016091F80683
:1018E000C9010E94EB09AC016091F5067091F60602
:1018F0008091F706F70109950E94F509462F282FD8
:10190000672FCE010E94FE082196C3CF818948131C
:101910000BC0DF01AA0FBB1FA75CB64059962D91E3
:101920003C9120173107D0F291503197D4CF2F92AC
:101930003F924F925F926F927F928F929F92AF925F
:10194000BF92CF92DF92EF92FF920F931F93CF93AC
:10195000DF93CDB7DEB72D970FB6F894DEBF0FBE7D
:10196000CDBF8C83798768872091490181E1289FC9
:10197000802D11248A838F5E89838B83853510F0B7
:1019800034E53B834091C7064D839A81892F90E0CF
:101990009D878C87880F991FFC01ED5BFD4F6F01C0
:1019A000FC818F2F90E09C01220F331FA901405230
:1019B000594F5F834E83FC013196FB87EA878B8109
:1019C0009C859817F0F081E0E981E43508F080E02B
:1019D0002D960FB6F894DEBF0FBECDBFDF91CF912D
:1019E0001F910F91FF90EF90DF90CF90BF90AF903D
:1019F0009F908F907F906F905F904F903F902F902F
:101A00000895EC85FD85E551FD4F808190914A0157
:101A1000892311F12090F5063090F6062A853B8542
:101A20002953394F39014E805F803C813A8310E061
:101A30002D813A813217D0F02091F706129F112D97
:101A40001124B101812F0E94F509462F282F672FFD
:101A50008C859D850E94FE084C855D854F5F5F4F9C
:101A60005D874C8752E0C50ED11CA9CFF30181914F
:101A70003F01F601A080A81ABB088180F30187818D
:101A8000881A9908AA9CC001AB9C900D900D112456
:101A9000889C9001899C300D300D1124820F931F7A
:101AA00082309105BCF4082F6091F806F201819113
:101AB00091912F010E94EB097C019401A501B101D4
:101AC000812FE885F98509951B01FA81FF5FFA836B
:101AD000182FAECF0E94A408E6CFF894E82FE29525
:101AE000EF70F0E031A1282F2F7081E090E001C06D
:101AF000880F2A95EAF7982F9095932391A392A1A6
:101B0000892B82A3789408959091EE0492FF06C0E9
:101B1000282F28712830F9F4877F846093FF06C04E
:101B2000282F28712831F1F4877E84612091EF04F9
:101B300020FF06C0382F38713830D9F4877F816094
:101B400021FF06C0282F28712831D1F4877E8161BA
:101B500094FD877E0895282F24712430F9F68B7F19
:101B60008860DCCF282F2471243101F78B7E8861B7
:101B7000DDCF382F3171313019F78E7F8860E0CF9B
:101B8000282F2171213121F78E7E8861E1CFCF92FC
:101B9000DF92EF92FF926C01EE24FF2420E0C1144B
:101BA000D104E104F10419F0C701B60120E1C72E08
:101BB000D82EE92EFF24C114D104E104F10419F058
:101BC000285FC701B6016B017C0154E0F694E794ED
:101BD000D794C7945A95D1F7C114D104E104F10404
:101BE00019F02C5FC701B6016B017C0142E0F6944D
:101BF000E794D794C7944A95D1F7C114D104E1046E
:101C0000F10419F02E5FC701B60196958795779577
:101C10006795672B682B692B09F02F5F822FFF9048
:101C2000EF90DF90CF900895882391F084EC80931B
:101C3000BC0080E49FE1A0E0B0E02091BC0027FD63
:101C40000DC00097A105B10529F48FEF9FEF08950E
:101C500084E8EDCF0197A109B109EFCF892B8A2B39
:101C60008B2B99F38091BB0090E00895DB01FC0180
:101C700090E080E034E821912093BB003093BC00D9
:101C800040E45FE160E070E02091BC0027FD0DC002
:101C9000411551056105710519F48FEF9FEF089506
:101CA0004150510961097109EFCF452B462B472B54
:101CB000A1F32091B900287F283279F70196A8175F
:101CC000B907C9F6089584E98093BC008091BC00EF
:101CD00084FDFCCF0895262F94EA9093BC0040E445
:101CE0005FE160E070E09091BC0097FD0DC0411590
:101CF00051056105710519F48FEF9FEF089541506B
:101D0000510961097109EFCF452B462B472BA1F3F0
:101D10009091B900987F983011F0903169F7880F51
:101D2000682F622B6093BB0084E88093BC0080E442
:101D30009FE1A0E0B0E02091BC0027FD08C0009723
:101D4000A105B105C9F20197A109B109F4CF892B09
:101D50008A2B8B2B89F28091B900887F883111F012
:101D6000803451F690E080E00895EF92FF920F9357
:101D70001F93CF93DF931F92CDB7DEB769837A01AC
:101D800060E00E946B0E8C0197FD12C061E070E074
:101D9000CE0101960E94360E8C0197FD09C061E0CC
:101DA00070E0C7010E94360E8C0197FF0E94630EFF
:101DB000C8010F90DF91CF911F910F91FF90EF908D
:101DC0000895EF92FF921F93CF93DF931F92CDB7A9
:101DD000DEB77B01FC0111818DE1898360E0812FF9
:101DE0000E946B0E97FD19C061E070E0CE01019674
:101DF0000E94360E97FD11C061E0812F0E946B0E8C
:101E000097FD0BC080E00E94140E97FD06C0F701FD
:101E100080830E94630E81E090E00F90DF91CF916C
:101E20001F91FF90EF900895EF92FF920F931F93F1
:101E3000CF93DF938B017A0160E00E946B0EEC017F
:101E400097FD08C0B701C8010E94360EEC0197FF4C
:101E50000E94630ECE01DF91CF911F910F91FF90F1
:101E6000EF900895CF93DF9300D01F92CDB7DEB7E8
:101E700020914C0130914D0140914E0129833A83CC
:101E80004B8343E050E0BE016F5F7F4FFC018081D8
:101E90000E94140F0F900F900F90DF91CF91089533
:101EA000CF92DF92EF92FF920F931F93CF93DF9326
:101EB000CDB7DEB72F970FB6F894DEBF0FBECDBFFC
:101EC0008C0169011A861B861C861D8619821A825E
:101ED00086E0F82EFB8281E08C8384E08D838FEB9B
:101EE0008E836F835887498749E050E0BE016F5F5A
:101EF0007F4FF80180810E94140F97FD54C0C801E4
:101F00000E94320F97FD4FC060E0F80180810E946F
:101F10006B0E97FD48C01E86FF8662E070E0CE0122
:101F20000E960E94360E97FD3EC061E0F80180815A
:101F30000E946B0E97FD37C081E00E94140E97FD42
:101F400032C07E01FAE0EF0EF11C10E000E00F5FFE
:101F50001F4F81E0043011050CF080E00E94140E48
:101F600097FD21C0F70181937F010430110579F7B6
:101F70000E94630E8A859B85AC85BD85F6018083B2
:101F80009183A283B383C8012F960FB6F894DEBF66
:101F90000FBECDBFDF91CF911F910F91FF90EF90BA
:101FA000DF90CF9008958C01EECF8F929F92AF92E9
:101FB000BF92CF92DF92EF92FF920F931F93CF9336
:101FC000DF93CDB7DEB729970FB6F894DEBF0FBE0B
:101FD000CDBF7C01B42EA52E962E872E690160E020
:101FE000FC0180810E946B0E97FD20C019821A822D
:101FF00086E0800F8B831C820D838E829F82A88651
:10200000B98669E070E0CE0101960E94360E97FD18
:102010000DC0B801C6010E94360E97FD07C00E9490
:10202000630EC7010E94320F97FFC80129960FB6B1
:10203000F894DEBF0FBECDBFDF91CF911F910F91FE
:10204000FF90EF90DF90CF90BF90AF909F908F90D8
:1020500008950F931F93CF93DF9300D000D0CDB797
:10206000DEB709831A832B833C8304E010E09E01D2
:102070002F5F3F4F0E94D50F0F900F900F900F9042
:10208000DF91CF911F910F910895EF92FF920F93DF
:102090001F93CF93DF9300D000D0CDB7DEB77C0184
:1020A000162F19821A821B821C829E012F5F3F4FBE
:1020B00048E259E060E87FEBFC01808191810E9459
:1020C000500F97FD2DC081E090E0A0E0B0E0F70157
:1020D000028004C0880F991FAA1FBB1F0A94D2F761
:1020E00049815A816B817C81112329F1842B952BA5
:1020F000A62BB72B89839A83AB83BC8309811A8172
:102100002B813C8148E259E060E87FEBF701808158
:1021100091810E9429101816190614F490E080E0AD
:102120000F900F900F900F90DF91CF911F910F9113
:10213000FF90EF90089580959095A095B095842399
:102140009523A623B723D6CF0F931F93CF93DF9367
:1021500000D01F92CDB7DEB78C01BE016D5F7F4FFF
:102160000E94E10E97FD1EC08B81F80192819817A5
:10217000B9F08283982F93709230E1F0869586951E
:10218000837060E08230B9F086E68A83AE014E5FEC
:102190005F4F63E281810E94B50E1816190614F490
:1021A00090E080E00F900F900F90DF91CF911F9102
:1021B0000F91089561E0F801838194810E94451098
:1021C00097FDF0CF87E78983AE014F5F5F4F63E2F2
:1021D000F801E0CF0F931F93CF93DF931F92CDB7FA
:1021E000DEB78C01BE016F5F7F4F0E94E10E97FD4D
:1021F00010C0F801238134819981937060E009F067
:1022000061E0C9010E9445101816190614F490E007
:1022100080E00F90DF91CF911F910F910895CF92A1
:10222000DF92EF92FF920F931F93CF93DF9300D033
:1022300000D01F92CDB7DEB76C018FEFF60182831D
:10224000E380F480F70142815381648175814D5FA1
:10225000534F6F477044808191811D8201E010E0EF
:102260009E012B5F3F4F0E94D50F97FD48C060E055
:10227000C7010E94451019821A821B821C829E018E
:102280002F5F3F4F48E059E060E87FEBF701808126
:1022900091810E94500F97FD32C001E010E020E0D4
:1022A00030E0F701028004C0000F111F221F331F0E
:1022B0000A94D2F789819A81AB81BC81082B192BB2
:1022C0002A2B3B2B09831A832B833C8348E059E05C
:1022D00060E87FEB808191810E94291097FD0FC0FB
:1022E000F6018081882329F08130B9F090E080E008
:1022F00006C0C6010E94EA1018161906BCF30F901A
:102300000F900F900F900F90DF91CF911F910F9131
:10231000FF90EF90DF90CF90089585E08983AE0124
:102320004F5F5F4F6AE181810E94B50EE5CF20913A
:102330009706211110C00E94C70D843060F495E00B
:10234000989FF0011124E65DFE4FA4EFB6E00190E6
:102350000D929A95E1F70895CF92DF92EF92FF9256
:102360006B017C010E949711C0929206D092930655
:10237000E0929406F0929506FF90EF90DF90CF9058
:102380000C9413080F931F9341E050E060E070E05D
:1023900004C0440F551F661F771F8A95D2F7CB01E3
:1023A000BA01609570958095909500919206109174
:1023B0009306209194063091950660237123822321
:1023C00093231F910F910C94AC119091D904809597
:1023D00089238093D904282F277071F4282F082E81
:1023E000000C330B9217130639F08595859585956A
:1023F0000E94C2111092D90408950F931F9341E0D7
:1024000050E060E070E004C0440F551F661F771F66
:102410008A95D2F78091920690919306A0919406A6
:10242000B09195068A019B01082B192B2A2B3B2B77
:10243000C901B8011F910F910C94AC1190919706AE
:10244000911112C080932D01809332018093370146
:1024500080933C016091920670919306809194065E
:10246000909195060C9497110895CF93DF9300D027
:102470001F92CDB7DEB79091BD06943011F58983D8
:102480007B836A839093E9008FEF9091E8008150FD
:1024900095FD06C09AE69A95F1F700C08111F5CF37
:1024A0008091E80085FF0DC050E040E063E070E0FF
:1024B000CE0101960E9490038091E8008E77809370
:1024C000E8000F900F900F90DF91CF910895BC011D
:1024D00084E00C943512BC0183E00C943512CF9348
:1024E000DF93EC01809148018823B1F18091EE04E3
:1024F00087FF32C060E284E08093E9008FEF909123
:10250000E800815095FD06C09AE69A95F1F700C063
:102510008111F5CF8091E80085FF1BC080914801B3
:1025200070E050E040E0811104C050E040E068E01D
:1025300070E0CE010E9490038091E8008E77809336
:10254000E80080E2FE01ABE9B6E001900D928A95C9
:10255000E1F7DF91CF91089568E081E0CDCF81E090
:102560008093E00080E28093D8001092C9008FE051
:1025700097E20197F1F700C0000087E090EBDC01E3
:102580008093000790930107A0930207B09303077D
:1025900088E19CE00FB6F894A895809360000FBE88
:1025A00090936000FFCFCF93C82F882309F4A7C072
:1025B0008238C1F40E942B0881FDA1C089E30E94EA
:1025C0003A070E94CB062FEF80E792E0215080402F
:1025D0009040E1F700C0000089E30E941007CF910E
:1025E0000C94CB068338A1F40E942B0880FD87C091
:1025F00083E50E943A070E94CB062FEF80E792E026
:10260000215080409040E1F700C0000083E5E5CF15
:102610008438A1F40E942B0882FD71C087E40E94D7
:102620003A070E94CB062FEF80E792E021508040CE
:102630009040E1F700C0000087E4CFCF8CEF8C0F13
:10264000813A90F580914801882301F18091EE0450
:1026500087FF1CC0EC2FE695E695E695F0E0EE5B73
:10266000FC4F828190E04C2F477021E030E002C0A7
:10267000220F331F4A95E2F782239323892B81F09F
:102680008C2F0E9410070E94CB060AC0E4E4F3E0FE
:102690008AE493E02191C21799F38E179F07D1F72F
:1026A0008C2F0E943A079BCF80E28C0F883068F411
:1026B000C77021E030E001C0220FCA95EAF780918F
:1026C000DC04822B8093DC048ACFEBE5EC0FE33053
:1026D00040F4F0E0E458FE4F808190E0CF910C94FC
:1026E000FD07C85AC73158F4EC2FF0E0EE0FFF1F7A
:1026F000E158FE4F80819181CF910C94E707CF91F3
:1027000008950F931F93CF93DF93C62FD42F122FCB
:10271000FC0182818823A1F06093FF060E94B90624
:102720009093FE068093FD06C77081E001C0880F7C
:10273000CA95EAF7DF91CF911F910F910C94DD07B5
:102740008091FF06681343C02091FD063091FE067C
:102750004FB7F8948091F9069091FA06A091FB0684
:10276000B091FC064FBF821B930B883C910578F516
:1027700000E20D0F6D17B9F080E2860F883040F44B
:10278000C77081E001C0880FCA95EAF70E94D2079E
:10279000083020F581E09D2F977001C0880F9A9531
:1027A000EAF70E94DD07812F0E94D312812F0E9439
:1027B00037080830E8F4D77081E001C0880FDA9557
:1027C000EAF7DF91CF911F910F910C94D207C77058
:1027D00081E001C0880FCA95EAF7F3CF812F0E94EC
:1027E000D312812FDF91CF911F910F910C94370855
:1027F000DF91CF911F910F9108956A9A8EB18B7FCF
:102800009EB194602FB7F894E7E6F3E034E0E33646
:10281000F30741F42FBF8FE292E00197F1F700C078
:1028200000000895319148E09EB937FF8EB9330F0B
:10283000000000C08EB94A95B9F7E8CFAF92BF92B9
:10284000CF92DF92EF92FF920F931F93CF93DF937C
:102850000DEA11E0C2EED4E0C12CD12CEE24E394B9
:10286000F12CF80181918F01F894E82FE295EF7037
:10287000F0E021A18F70A70102C0440F551F8A9577
:10288000E2F7CA01922F982B91A392A180958923F8
:1028900082A3789400C0E3EBF1E030E020E0B12CBB
:1028A000A12C4191A42FA295AF70B0E090968C918D
:1028B00090E04F7002C0959587954A95E2F780FDAC
:1028C0009EC0C701022E02C0880F991F0A94E2F72A
:1028D000A82AB92A2F5F3F4F2E30310511F7F80192
:1028E000319780810E946D0D55E0C51619F080E585
:1028F0008A95F1F789919991A816B90609F482C0D1
:10290000FE013297B182A08281E0D82AC394E6E02A
:10291000CE12A7CFDD2049F081E0809364030E94AE
:10292000B9069093630380936203809164038823C4
:1029300009F445C020916203309163034FB7F894C6
:102940008091F9069091FA06A091FB06B091FC06E1
:102950004FBF821B930B069790F18091E2049091F8
:10296000E30490938A05809389058091E404909113
:10297000E50490938C0580938B058091E6049091FB
:10298000E70490938E0580938D058091E8049091E3
:10299000E9049093900580938F058091EA049091CB
:1029A000EB0490939205809391058091EC049091B3
:1029B000ED049093940580939305109264038091A5
:1029C000650390916603883EF3E09F07ECF0109258
:1029D0006603109265038CE191E00E94A41087E1E8
:1029E00091E00E94A4108D2DDF91CF911F910F9146
:1029F000FF90EF90DF90CF90BF90AF90089590E060
:102A000080E066CF80E081CF01969093660380934B
:102A10006503E9CF1F93CF93DF93EC01FC01E551F0
:102A2000FD4F80816823A1F00E94C22F182F0E94C1
:102A3000C22F612F782F8091F7060E94F509462F4B
:102A4000282F672FCE01DF91CF911F910C94FE08A4
:102A5000DF91CF911F910895DF92EF92FF920F9334
:102A60001F93CF93DF938C01FC01E551FD4F8081D3
:102A7000682381F1D090F606D091F706C091F50653
:102A8000EC2EF12C0E94C22F282FC7018C549F4F8F
:102A900068E671E00E94452F8E199F0997FD039605
:102AA000959587959595879523706C2F289F600D38
:102AB00011247D2D8D2F0E94F509462F282F672F79
:102AC000C801DF91CF911F910F91FF90EF90DF90A0
:102AD0000C94FE08DF91CF911F910F91FF90EF9022
:102AE000DF9008958091F406837029F08C698093BB
:102AF000F4061092290181E0809397060895CF9300
:102B000084E090E00E94FA2FC82F81E290E00E94BA
:102B1000FA2F982F8C2FCF9108950F931F93CF9357
:102B2000DF93C42FD0E0CC0FDD1F2CE1629FC00DDE
:102B3000D11D112438EA839FC00DD11D1124CD5B16
:102B4000DF4FCE010E94FA2F082F10E0102F002730
:102B5000CE0101960E94FA2F9801282BC901DF911E
:102B6000CF911F910F910895462F843038F476301D
:102B700028F46E3018F4672F0C948D1590E080E0E7
:102B80000895CF93DF930E94B415EC01823891052C
:102B9000A9F1D8F58133910509F496C048F5893239
:102BA000910509F48AC08A9709F495C0C11522E5F8
:102BB000D20708F0B6C0C11581E5D80708F026C1D4
:102BC000C83ED10508F09CC0C03ED10560F5C83AAA
:102BD000D10508F087C0C53AD10508F0F0C0C13072
:102BE000D10509F108F444C0C430D105E0F440C077
:102BF0008533910509F45AC0C997C1F68091EE0456
:102C0000837089F0C0EED0E00EC0833E910599F14B
:102C100070F4803E910501F1823E910539F6809174
:102C2000EE0482FD21C0CE01DF91CF910895863E52
:102C3000910561F1873E910571F1843E910509F09E
:102C4000B5CF8091EF0481FFEECF8091EE04C7EE07
:102C5000D0E084FD0DC0E7CF8091EE0480FD0AC175
:102C60009091EF0490FFDFCFC3EED0E084FFDBCF85
:102C7000D0E0C0E0D8CF8091EE0482FDFEC09091FC
:102C8000EF0490FDBFCF84FDF3CFCDCF8091EE0454
:102C900083FDDDCFC8CF8091EE0483FDF1C090911C
:102CA000EF0491FFF0CFC4EED0E0BDCF8091EE04F1
:102CB00085FFB9CFC9E2D0E0B6CF8091EE0485FFA1
:102CC000B2CFC5E3D0E0AFCF8091EE0486FFABCFAB
:102CD000CAE2D0E0A8CF8091EE0486FFA4CFC1E382
:102CE000D0E0A1CFCF3BD10518F6C85AD0E0CC0F29
:102CF000DD1FC158DE4F0990D881C02DD46493CF19
:102D0000C11520E5D20708F065C0C11580E4D807D9
:102D100008F05DC0CE019A9581159F4108F483CFDC
:102D2000A7CFC11586E5D80718F5C11525E5D20747
:102D300008F085C0C11584E5D80708F07BC09C2F3A
:102D4000969596959E0123703327C115D34508F4B7
:102D500062C0C1E0D0E002C0CC0FDD1F2A95E2F7CF
:102D600020E2929FC0011124C82BD92BDA685BCFD7
:102D7000C1152AE5D20778F4C11589E5D80708F00E
:102D800069C0C11528E5D20708F472CFDC2FCC2723
:102D9000C06FD06A48CFCE0190568115904208F09E
:102DA00067CF8D2F8F710E94840D90E0982F882718
:102DB00088279F71DD27D062C82BD92B34CFC55A05
:102DC000D0E0C458DE4FC881D0E0D0642CCFDF7093
:102DD000D06A29CFCE01F4E096958795FA95E1F770
:102DE00083709C2F937021E030E002C0220F331FCC
:102DF0009A95E2F73C68382BC695C695C37080E279
:102E0000C89FE0011124C22BD32B0DCFDC2FCC2780
:102E1000C16FD06A08CFC1E0D0E002C0CC0FDD1F87
:102E20002A95E2F720E2929FC0011124C82BD92BEA
:102E3000DC68F9CEDC2FCC27C46FD06AF4CE8C2F9F
:102E40000E94840DC82FD0E0DC2FCC27CC27DF7167
:102E5000D062E9CE8C2F8F700E94840D34E0D6951D
:102E6000C7953A95E1F7CF70D0E0DC2FCC27D06939
:102E7000C82BD9CEC9E3D0E0D6CEC2EED0E0D3CEB7
:102E8000C6EED0E0D0CEBF92CF92DF92EF92FF920B
:102E90000F931F93CF93DF938C01C0909206D09035
:102EA0009306E0909406F09095068091DE04909150
:102EB000DF04A091E004B091E104C82AD92AEA2AEB
:102EC000FB2ACFE1D0E0BC2ED701C6010C2E04C0F6
:102ED000B695A795979587950A94D2F780FD0EC071
:102EE000219788F7B12C8B2DDF91CF911F910F91F6
:102EF000FF90EF90DF90CF90BF900895B8018C2F96
:102F00000E94C115019761F3EECFCF93DF93EC01DF
:102F10000E944317BE01DF91CF910C94C1150E940E
:102F20008517292F2F70E92FE295EF70E250EE30D0
:102F3000E0F4F0E0E256F84E0C94592FAC17AC17C1
:102F4000B517B517B717B517B517B517AC17AC1731
:102F5000BC17B517B517BC17803F19F020F4883E91
:102F600020F481E00895843FE1F380E00895883EF5
:102F7000C0F3813FD1F7F5CF822F86958695869550
:102F800008956BEE7EEF90E080E00E94363060E0C6
:102F900082E090E00E94183060E083E090E00E94C0
:102FA00018301092DE041092DF041092E0041092A8
:102FB000E10460E084E090E00E94183060E081E28B
:102FC00090E00E94183060E085E090E00E941830A8
:102FD00060E086E090E00E9418306FEF87E090E0BC
:102FE0000E94183040E050E0BA0188E090E00E9472
:102FF0002A3060E08DE090E00E94183040E050E020
:10300000BA0188E190E00E942A3060E087E190E018
:103010000E94183040E050E0BA018CE190E00E943C
:103020002A3060E080E290E00E94183040E050E0FA
:10303000BA0188E190E00E942A3040E050E0BA01F5
:103040008FE090E00E942A3040E050E0BA0183E136
:1030500090E00C942A301092DC0480914801E4E462
:10306000F3E0882359F08091EE0487FF07C08EE1DA
:10307000DF011D928A95E9F70C94130886E0F8CFDA
:103080001F93CF93DF93CDB7DEB7AA970FB6F8940F
:10309000DEBF0FBECDBFEFEBF6E08091F100819374
:1030A00086E0E73CF807C9F78091C006833009F451
:1030B0007EC008F5813009F455C0823009F4BFC0E4
:1030C0008091E80083FFF9C08091BF069091C0060F
:1030D0009A3008F0F2C0E92FF0E0EF58F74E0C9468
:1030E000592F301956195D1956195D19B419D61989
:1030F0005D19D51AE21A8A3009F490C08B3009F4B0
:1031000073C08930E9F68091BF068132C9F680919B
:10311000C3069091C406009711F0029789F680913A
:10312000E800877F8093E8008091E80082FF3AC042
:103130008091F3009091F2008927982789270297C0
:1031400029F48091F1008B7F813021F48091F1008E
:1031500080939A068091E8008B778093E8000E9424
:10316000BA03AECF8091BF06813A09F0A9CF809112
:10317000E800877F8093E8008091C3069091C406A1
:10318000892B61F060E090E080E070E00E946C04C8
:103190008091E8008B778093E80092CF60E28BE922
:1031A00096E0F3CF8091BD068111BECF89CF80918B
:1031B000BF06813A09F084CF8091C3069091C4067E
:1031C000892B09F07DCF8091E800877F8093E8000C
:1031D0008091E80080FFFCCF809148018093F1004E
:1031E0008091E8008E77B9CF8091BF06813209F0D7
:1031F00067CF8091C3069091C406892B09F060CFF8
:103200008091E800877F8093E8000E94BA03809154
:10321000C106809348010E942B1852CF8091BF06AF
:10322000813209F04DCF8091E800877F8093E800DC
:103230000E94BA038091C2068093990641CF809183
:10324000BF06813A09F03CCF8091E800877F8093E8
:10325000E8008091E80080FFFCCF80919906BECF06
:10326000803889F0823849F58091C3068F708730A5
:1032700020F58093E9008091EB0085FB882780F999
:103280001092E90006C08091BB069091BC06911196
:1032900082609091E800977F9093E8008093F1001E
:1032A0001092F1008091E8008E772DC0282F2D7F9D
:1032B00021F48823D1F0823059F18091E80083FF16
:1032C0000AC08091E800877F8093E8008091EB003E
:1032D00080628093EB00AA960FB6F894DEBF0FBE13
:1032E000CDBFDF91CF911F9108958091C1068130AC
:1032F00021F7933009F080E08093BC061092E9003A
:103300008091E800877F8093E8000E94BA03D5CFC0
:103310008091C1068111F2CF8091C3068F702FEF8B
:10332000280F263050F68093E9002091EB0020FF13
:10333000E5CF933031F48091EB0080628093EB0015
:10334000DDCF9091EB0090619093EB0021E030E0B5
:1033500001C0220F8A95EAF72093EA001092EA0052
:103360008091EB008860EACF8111A7CF1091C10650
:103370001F778091E3008078812B8093E300809118
:10338000E800877F8093E8000E94BA038091E800FC
:1033900080FFFCCF8091E30080688093E30083E0AE
:1033A000111101C082E08093BD0687CF8058823022
:1033B00008F083CF2091C1063091C2062C3DA3E0D6
:1033C0003A07A1F583E08A838AE289834FB7F894AC
:1033D000DE01139620E03EE051E2E32FF0E050934F
:1033E0005700E49120FF03C0E295EF703F5FEF705C
:1033F0008E2F90E0EA30C0F0C7968D939D932F5F9B
:10340000243159F74FBF8091E800877F8093E8000F
:103410006AE270E0CE0101960E946C048091E8009F
:103420008B778093E80049CFC096E7CF8091C306A1
:103430009091C406432F55274330510509F44FC0DE
:1034400078F54130510509F445C08BE590E0EBE19A
:10345000F5E04230510509F030CF2091E800277F98
:103460002093E8002091C5063091C6068217930785
:1034700008F49C0140E02115310509F063C04111B9
:1034800061C08091E80082FDC9CF8091BD0688238C
:1034900029F2853019F28091E80083FFF2CFBECF88
:1034A0004132510509F43FC04232510509F005CFC0
:1034B0008330910508F001CFFC01EE0FFF1FED51A5
:1034C000FE4F0190F081E02D80529E4FDC018C91E7
:1034D00090E01DC082E190E0E6E7F5E0BECF332743
:1034E00021303105C1F060F02230310509F0E5CE20
:1034F000E8E8F5E0E4918E2F90E0E8E8F5E007C019
:10350000EEEEF5E0E4918E2F90E0EEEEF5E0009720
:1035100009F4D3CEA2CFEAEDF5E0E4918E2F90E04E
:10352000EAEDF5E0F4CF8330910508F0C6CE880FC0
:10353000991FFC01E751FE4F0190F081E02D89E0D9
:1035400090E08BCF8091BD06882309F467CF85304A
:1035500009F464CF8091E80083FD60CF8091E8009A
:1035600082FD8FCF8091E80080FF85CF8091F300AE
:103570009091F2008927982789272115310519F0A4
:103580008830910550F041E0089709F040E08091C3
:10359000E8008E778093E8006ECF44914093F1006D
:1035A0003196215031090196E8CF803809F085CE57
:1035B0008091E800877F8093E8008091BE06809329
:1035C000F10070CE811179CE1091C106123008F051
:1035D00074CE8091E800877F8093E8001093BE0648
:1035E0000E94BA031123C1F084E08093BD0642E03B
:1035F00061EC81E00E94D90342E261EC84E00E9428
:10360000D90342E261EC82E00E94D90342E260EC1D
:1036100083E00E94D90351CE8091E30087FDE4CF7F
:1036200081E0E3CF8F929F92AF92BF92CF92DF92D1
:10363000EF92FF920F931F93CF93DF9300D000D0B0
:103640001F92CDB7DEB77C01FC019081818123817F
:103650003481232B39F08F3F19F481E09F3F19F01B
:1036600080E001C081E080FD6EC585E0F701DE01EC
:10367000119601900D928A95E1F7F70122818981D7
:103680009A81222309F440C00E944317182F682F03
:1036900089819A810E94990769817A81812F0E948C
:1036A000B4158C01D0909505D11042C0853CFCE545
:1036B0009F0709F4DDC008F059C0843E910509F464
:1036C00042C130F58932910509F442C1803E91052D
:1036D00009F434C1043FFCE51F0709F459C108F09F
:1036E00042C1093D8CE5180709F44EC10A3D9CE52D
:1036F000190709F459C1083DECE51E0709F06AC035
:1037000026E241EE61EE3CC10E946E07182FC4CF45
:10371000033C8CE5180709F401C108F052C00115FB
:10372000ECE51E07B9F6F701828181110E9472153E
:103730008091D904877009F406C5F7018281882336
:1037400009F401C582E00F900F900F900F900F9039
:10375000DF91CF911F910F91FF90EF90DF90CF906D
:10376000BF90AF909F908F900C94E5118A3CFCE540
:103770009F0709F4B3C090F4063C8CE5180709F4E0
:103780008BC0073C9CE5190709F0A4CFF7018281A3
:10379000882301F180912B01815086C08C3CECE59F
:1037A0009E0709F46EC008F482C08D3C9C4509F068
:1037B00091CFF7018281882369F080912E01815099
:1037C00068C0F7018281882329F080912A018C5FEB
:1037D00080932A01F7018281882309F4A7C41092FB
:1037E000FF060230FCE51F0708F4BDC106312CE5D9
:1037F000120738F098012B5F3C452930310508F05D
:10380000B2C10E947F159093EF048093EE040031C3
:103810008CE5180709F475C108F0FBC00830ECE529
:103820001E0709F458C108F0D5C004302CE5120772
:1038300009F447C108F0BBC002309CE5190709F440
:103840003AC18091EE04826003301C4509F436C110
:103850006091EE041091EF0484E090E00E94183033
:10386000612F81E290E00E9418300E942B1860CFF7
:10387000F7018281882309F4ADCF80912A01845019
:10388000A7CFF7018281882309F4A4CF80912E016C
:103890008F5F80932E019ECFF7018281882309F4E8
:1038A00099CF80912B018F5F80932B0193CFF701EC
:1038B0008281882309F43CCF9091F70680EB913BFD
:1038C00010F5953848F5943628F5933408F5923379
:1038D000E8F481E29817B8F4892F15C0F7018281C6
:1038E000882309F425CF9091F70681E2913258F0B0
:1038F000913360F0923460F0933660F0943860F069
:1039000080EB891748F30E941E1212CF81E3FBCF90
:1039100082E4F9CF83E6F7CF84E8F5CFF70182811F
:10392000882309F405CF8091F706811103C08091A7
:103930001601E9CF8093160180E0E5CFF70182817F
:103940008093680447CFF70182818093670442CF58
:1039500080916804882309F43DCF8091670488230F
:1039600009F438CFE0CE063FFCE51F07C9F0A0F010
:1039700027E245EE66EE073F8CE5180709F02ACFEF
:10398000C7010E948113D4CE27E245EE65EEF8CF41
:1039900026E241EE60EEF4CF27E245EE64EEF0CF92
:1039A00026E241EE62EEECCF28E241E0EFCF8091DB
:1039B000EE0480610630FCE51F0709F47FC08091AA
:1039C000EE04886007301C4508F478C08091EE044E
:1039D000806274C00C308CE5180709F48AC058F472
:1039E0000A30ECE51E0709F480C008F478C0809125
:1039F000EE048E7F63C08091EE04877F0E302CE54D
:103A0000120709F45BC008F478C08091EE048F7E41
:103A100055C00C3F9CE5190709F457C020F5033148
:103A2000FCE51F0709F475C078F401318CE518072F
:103A300009F46BC002311C4509F00ACF0E942B1813
:103A40008091EE048F773AC00531ECE51E0709F44A
:103A500069C008F47DC08091EF040B3F1C4509F05C
:103A6000F7CE816035C001158DE5180709F455C002
:103A700088F48091EF048D7F0E3FECE51E0741F145
:103A80008091EF040F3F1C4508F44AC08091EF0479
:103A90008260E7CF02302DE5120709F462C008F416
:103AA0004DC060E003301D4509F0D2CE8EE090E0BD
:103AB0000E941830CDCE8091EE0481608093EE0498
:103AC000C7CE8091EE048460F9CF8091EF048260CC
:103AD0008093EF04BDCE8091EE048064EFCF0E940E
:103AE0002B188091EE048068E9CF8091EE04886005
:103AF000EACF8091EE048D7FE1CF8091EE048B7F41
:103B0000DDCF8091EE048F7DD9CF8091EE048F7B45
:103B1000D5CF8091EE04877FF2CF8091EF048D7F27
:103B20008E7FD6CF8091EE0482FB992790F921E019
:103B3000922790FB82F990FB83F9C0CF8091EF042C
:103B4000982F909591708E7F892B90FB81F9C0CF33
:103B50000E942B189091EE04892F97FB87F98058CB
:103B6000ADCF61E0A3CF0631ECE51E07A1F4809153
:103B7000DC048A7A91E009F490E090936904882348
:103B800031F085E30E943A070E94CB06D1CD89E24D
:103B9000F9CF89E2D5C29801235C3C452431310537
:103BA00008F4C6CD0115FCE51F0709F450C00F3D10
:103BB0001C4509F459C0F70100811181882309F4DB
:103BC00056C0C8010E944317C82E682FC8010E9422
:103BD0009907B8018C2D0E94C1158C01982EF70110
:103BE000C280B580B2943FE0B3228091D90487703F
:103BF000A1F0CC2089F0812F807F803421F080E2F9
:103C0000800F883050F082E00E94E5118091D90445
:103C10008770DD24D3948111D12CA12EA2942FE0A2
:103C2000A222FBE0FA1508F45CC0EA2DF0E0E55EA4
:103C3000F14E0C94592F3C1E3C1EA01EA01EF81ED7
:103C4000711E711E711E171FEE1FFF1FFF1F0E94A6
:103C50002B188FE79AE1E6E081509040E040E1F7D1
:103C600000C000000E94AF120E94C11761CDC801C0
:103C70000E946E07C82EADCF212F2F70B22E107F5D
:103C800019F0B29490EFB922802FCC20C9F0BB205C
:103C900069F090E2900F983010F001110BC0809104
:103CA000DC04B82AB092DC040E94CB06802F0E946C
:103CB000D31217C08091DB04B82AB092DB04F4CF92
:103CC0000E943708BB2069F0B094005E083010F005
:103CD000911030C08091DC04B822B092DC040E94C4
:103CE000CB06DD2009F42FC28091D90480FD2BC2C0
:103CF000F70112828595859585950E94FD11C70172
:103D00000E94121B8091D9048595859585950F9009
:103D10000F900F900F900F90DF91CF911F910F9107
:103D2000FF90EF90DF90CF90BF90AF909F908F90DB
:103D30000C94C2118091DB04B822B092DB04CFCF87
:103D4000812F8F70A82E107F103219F0A29480EF6F
:103D5000A822992071F091E0991661F1CC20B9F177
:103D6000BB2071F1F701858180FFA0CF8F70858323
:103D700027C0CC2091F09091DD048A2D892BB110C1
:103D800003C00E94DD07ADCFE1E0BE12FACF981765
:103D900009F4A7CF8093DD04A4CFB11006C00E9420
:103DA000C5068A2D0E94D2079CCFF1E0BF1609F408
:103DB00098CFF5CFCC2031F025E02B1508F491CF2A
:103DC0008A2DDFCF84E08B1508F48BCFEACFBB20A0
:103DD00041F3093349F4FFEF23EF81E0F150204034
:103DE0008040E1F700C00000802F0E94370879CFA3
:103DF000812F86958695837041F0813079F088EF28
:103E00008A0D843008F06DCF5DC0C8019370C11079
:103E100002C090E080E00E94FD0763CFC80193706C
:103E2000C11002C090E080E00E94E7075ACF812FC6
:103E3000837009F068C0C11045C0802F82958695B7
:103E40008770880F880F602F6F70862E912CB12C91
:103E5000A12C082E04C0880C991CAA1CBB1C0A9417
:103E6000D2F740E050E0BA0104FF0FC04FE050E04D
:103E700060E070E004C0440F551F661F771F8A95ED
:103E8000D2F74095509560957095812F86958695CF
:103E90008370823029F1E8F40091DE041091DF0490
:103EA0002091E0043091E104813079F048295929CA
:103EB0006A297B29CB01BA016023712382239323D2
:103EC0000E9421080E942B080CCF802A912AA22A46
:103ED000B32ACB01BA01682979298A299B29F0CF15
:103EE000482959296A297B290091DE041091DF04B1
:103EF0002091E0043091E104CB01BA0160277127E1
:103F000082279327DDCF8695CC2011F0812F8170F9
:103F10008823C1F2802F829586958770880F880F3D
:103F2000602F6F70862E912CB12CA12C082E04C00E
:103F3000880C991CAA1CBB1C0A94D2F740E050E0E4
:103F4000BA0104FF0FC04FE050E060E070E004C031
:103F5000440F551F661F771F8A95D2F740955095DD
:103F600060957095812F869586958370823019F1C2
:103F7000D8F4009192061091930620919406309106
:103F80009506813069F0482959296A297B29CB0196
:103F9000BA0160237123822393230E94AC1192CF34
:103FA000802A912AA22AB32ACB01BA016829792949
:103FB0008A299B29F2CF482959296A297B2900910E
:103FC0009206109193062091940630919506CB01AC
:103FD000BA016027712782279327DFCF1F70CC207B
:103FE00039F0812F0E94FD11802F0E94DD076ACFDA
:103FF000802F0E94D207812F0E94C21163CF802F91
:1040000092EF991609F457C0991588F0E0EF9E16C3
:1040100029F1F1EF9F1609F447C0CC2009F472C0D2
:10402000BB2009F46CC0802F0E94D312E8CE23EF8E
:10403000921609F447C094EF9912EFCFCC2009F4FF
:1040400053C01F71812F0E94FD1128E0129FC001F3
:10405000112483608093D904812F2AC0CC20F9F0E9
:10406000E4E0EB1508F4CBCE1F7161E070E080E076
:1040700090E004C0660F771F881F991F1A95D2F72A
:104080000091920610919306209194063091950626
:1040900060277127822793270E94AC11B0CEF5E0EC
:1040A000FB1508F4ACCEE0CF812F8F71CC2039F016
:1040B0000E94FD11A4CE812F8F71CC20C9F30E94E4
:1040C000C2119DCE60E070E0CB01CC2029F31F71BE
:1040D00061E070E080E090E004C0660F771F881F09
:1040E000991F1A95D2F7D8CF81E00E94E51181E09F
:1040F0008B1508F084CE82E00E94E51180CE812FDE
:104100008F71D6CFBB2079F0893349F49FEFE3EF6D
:10411000F1E09150E040F040E1F700C00000802F56
:104120000E9437086CCE812F8F71C9CF06311C4594
:1041300009F041CD80916904882309F42ACD85E3F3
:104140000E94100721CD0F900F900F900F900F90AD
:10415000DF91CF911F910F91FF90EF90DF90CF9063
:10416000BF90AF909F908F9008950F931F93CF9320
:10417000DF9380916F04807FB9F480916C04882371
:1041800099F08091A1041091700460916A0470917B
:104190006B04C0916D04D0916E0421E06F3F09F073
:1041A00020E006E0181305C0DF91CF911F910F9119
:1041B000089531E0209721F0322F7F3F09F030E061
:1041C00090E030FD33C0089FF001099FF00D1124ED
:1041D000DF01AF58BB4F11963C911197371326C0A2
:1041E0003C91361323C012963C91129731111EC098
:1041F00013964D915C914C1B5D0B483C5105B0F4FE
:1042000080916F048F70806180936F04EA58FB4F38
:1042100080818F70806180838AE694E00E94121B07
:10422000DF91CF911F910F910C94C8070196877071
:10423000B9CF9F92AF92BF92CF92DF92EF92FF924F
:104240000F931F93CF93DF93CDB7DEB761970FB670
:10425000F894DEBF0FBECDBF8C0185E0F801DE0112
:104260001D9601900D928A95E1F7F8019081818168
:10427000E28030916A0460916B0440916D0450912A
:104280006E0421E04115510531F06F3F19F421E032
:104290003F3F09F020E0F22FF1709F2E20FD42C138
:1042A000F801C380D4802AE6A22E24E0B22EF0903A
:1042B0006C04F601E41BF50BFF2009F403C1209107
:1042C0006F04722F707FE83CF10508F0C3C07111D4
:1042D00080C0FE2C681322C0391320C0E1101EC01C
:1042E0002F70206120936F04C5010E94121B8091E2
:1042F0006F04F80185838F2D61960FB6F894DEBFA9
:104300000FBECDBFDF91CF911F910F91FF90EF9026
:10431000DF90CF90BF90AF909F90089521E0CD287F
:1043200031F08F3F19F421E09F3F09F020E020FD9C
:1043300023C021E02E25F22FF170DF2E20FF3FC099
:104340002091A1044091700456E0241317C09D876A
:104350008E878D859E850E948517292F22952F7027
:10436000223008F1243030F59F7009F1F801958171
:10437000907FE9F4F92CBFCF20E0DDCF30E0529FF1
:10438000F001539FF00D1124EF58FB4F618186130C
:1043900006C06081961303C06281E61210C02F5FD1
:1043A0003F4F2770D2CF9F7011F0882319F3805EA2
:1043B000883000F3C8010E94121B9D2CDBCFEE2039
:1043C00009F499CF80916F04816080936F04F12C80
:1043D00092CF681312C0391310C0E1100EC0F8015B
:1043E0002583C8010E94121B86E0F801AAE6B4E00A
:1043F00001900D928A95E1F77ECF9D878E878D85FE
:104400009E850E948F17882309F1EE20F9F0809194
:104410006F04803270F020916A0430916B04388709
:104420002F831986DB86CA868C87CE0107960E9469
:10443000121B86E0F801AAE6B4E001900D928A957D
:10444000E1F70E94B520FF24F39455CFC8010E94E4
:10445000121BF9CF71110AC08AE694E00E94121B68
:1044600086E0F50111928A95E9F7B1CF68130FC084
:1044700039130DC0E1100BC0F8012583C8010E945B
:10448000121B86E0F50111928A95E9F734CF9D87DA
:104490008E878D859E850E948F178823B9F2EE2026
:1044A000A9F280916F04803220F220916A04309149
:1044B0006B043A8329831B82DD82CC828E83CE01FA
:1044C0000196B5CFE83CF105E0F6FE2CEE2009F4AC
:1044D000BDCF681316C0391314C080916F0480FDDE
:1044E00083CF982F907F09F47FCFF8018583903F89
:1044F00009F477CF982F907F905F8F70892B8583F9
:1045000070CF9D878E878D859E850E948F17811124
:1045100090CF80916F04816080936F04C8010E94E6
:10452000121BE9CEEE2009F491CF9D878E878D85F1
:104530009E850E948F17F82E882309F487CF86E086
:10454000F801AAE6B4E001900D928A95E1F7809116
:104550006A0490916B040E9485170E94B520CBCE0F
:104560001F93CF93DF93CDB7DEB767970FB6F8945D
:10457000DEBF0FBECDBF342F4B8B252F5C8B6D8BD9
:104580007E8B8F8B8E899F8961111092DB041A8A32
:10459000198A3D872E876F87998B888B86E0FE016D
:1045A0003D96DE01179601900D928A95E1F7CE01B6
:1045B00007960E941921811137C086E0FE013796C7
:1045C000DE01119601900D928A95E1F79F81888511
:1045D0002A853B85232B39F08F3F19F481E09F3FDB
:1045E00019F080E001C081E080FD1EC020917004C0
:1045F00030E0C9010196877099274091A1044817BE
:10460000190659F196E0929FD001939FB00D1124A5
:10461000AF58BB4FFE01319601900D929A95E1F78C
:10462000809370040E94C80716E08091A1049091C5
:1046300070048917F9F0819FC00111248F589B4F96
:104640000E9419218823B1F08091A10490E0019685
:10465000877099278093A104E8CF0E942B181092AD
:1046600070041092A10486E0EAE6F4E0DF011D92F6
:104670008A95E9F767960FB6F894DEBF0FBECDBFF7
:10468000DF91CF911F910895E4EFF6E08DE38083F1
:1046900080914F0190915001A091510181839283AB
:1046A000A3838FE7848345E050E06CE170E0CF01A5
:1046B0000C94083044E150E063EE72E0882361F02E
:1046C0008AE291E00E9408304CEF50E067EF72E020
:1046D00086E995E00C9408308AE291E00E94EA2F86
:1046E0004CEF50E067EF72E086E995E00C94EA2F1A
:1046F0001F920F920FB60F9211242F933F934F9357
:104700005F936F937F938F939F93AF93BF93CF9359
:10471000EF93FF93C091E900CF708091EC0010926D
:10472000E9008091F000877F8093F00078940E94E8
:1047300040181092E9008091F00088608093F000AA
:10474000C093E900FF91EF91CF91BF91AF919F91FD
:104750008F917F916F915F914F913F912F910F902A
:104760000FBE0F901F9018951F920F920FB60F92C9
:1047700011242F933F934F935F936F937F938F9366
:104780009F93AF93BF93EF93FF938091E10082FFDC
:1047900009C08091E20082FF05C08091E1008B7F1B
:1047A0008093E1008091DA0080FF24C08091D800DE
:1047B00080FF20C08091DA008E7F8093DA008091A4
:1047C000D90080FF99C080E189BD82E189BD09B42B
:1047D00000FEFDCF81E08093BD0680919806811197
:1047E00009C00E9442030E940B048091E200846091
:1047F0008093E2008091E10080FF17C08091E20089
:1048000080FF13C08091E2008E7F8093E200809150
:10481000E20080618093E2008091D8008062809302
:10482000D80019BC85E08093BD068091E10084FF2B
:1048300027C08091E20084FF23C080E189BD82E12E
:1048400089BD09B400FEFDCF8091D8008F7D809393
:10485000D8008091E1008F7E8093E1008091E2009A
:104860008F7E8093E2008091E20081608093E2007D
:104870008091BE06882309F445C084E08093BD067C
:104880008091E10083FF27C08091E20083FF23C075
:104890008091E100877F8093E10082E08093BD06F4
:1048A0001092BE068091E1008E7F8093E10080919E
:1048B000E2008E7F8093E2008091E200806180932D
:1048C000E20042E060E080E00E94D9038091F000C5
:1048D00088608093F000FF91EF91BF91AF919F911D
:1048E0008F917F916F915F914F913F912F910F9099
:1048F0000FBE0F901F90189519BC1092BD06109214
:10490000980678CF8091E30087FD02C081E0B6CFA2
:1049100083E0B4CFCF93DF93CDB7DEB7AD970FB6BB
:10492000F894DEBF0FBECDBF84B7877F84BF0FB6BC
:10493000F894A8958091600088618093600010923F
:1049400060000FBE80E891E00FB6F894809361009C
:10495000909361000FBE85B7806885BF85B780687A
:1049600085BF83EB96E090934103809340030E94C0
:1049700042030E940B048091E20084608093E20075
:1049800078948091BD06882399F01091E9001F70FA
:104990008091EC0080FF60C180E8182B1092E90044
:1049A0008091E80083FD0E9440181F701093E90079
:1049B00082E084BD93E095BD9DE797BD80936E0036
:1049C00080EF0E946D0D81EF0E946D0D84EF0E94BB
:1049D0006D0D85EF0E946D0D86EF0E946D0D87EFC6
:1049E0000E946D0D03EB11E031ECE32E31E0F32E6C
:1049F000D8018D918D010E946D0DE016F106C1F771
:104A0000E2EEF4E0A9E8B5E0119211921D921D9238
:104A100024E0EE3EF207C1F790E080E00E94023011
:104A20008B3E9E4F11F00E94C1171092C7068FEF68
:104A30009FEF9093E1068093E0069093E3068093C6
:104A4000E2069093E5068093E4069093E706809350
:104A5000E6069093E9068093E8069093EB06809330
:104A6000EA069093ED068093EC069093EF06809310
:104A7000EE061092F30490930D0580930C0590932D
:104A80000F0580930E059093110580931005909368
:104A90001305809312059093150580931405909348
:104AA0001705809316059093190580931805909328
:104AB0001B0580931A0590E080E00E9402308B3E37
:104AC0009E4F21F00E94C1170E94442345E050E010
:104AD0006CE170E084EF96E00E94EA2F8091F4068A
:104AE0008C7F11F40E9444231092BA0080E28093DC
:104AF000B8001092BC008CE08CA701E010E09E0191
:104B0000245D3F4F4AEF50E360E87FEB86E291E09F
:104B10000E94D50F97FD4CC01BA69E01255D3F4FFF
:104B200042E154E362ED7FEB86E291E00E94D50F13
:104B300097FD3EC019821A821B821C829E012F5F44
:104B40003F4F48E054E362ED7FEB86E291E00E9444
:104B5000500F97FD2DC009811A812B813C81016086
:104B600009831A832B833C8348E054E362ED7FEB97
:104B700086E291E00E94291097FD1AC004E813E331
:104B800023E030E040E050E360E87FEB86E291E034
:104B90000E94291097FD0CC004E813E324E030E0E4
:104BA00048E455EE62ED7FEB86E291E00E94291029
:104BB00081E291E00E940F118CE191E00E940F11BF
:104BC00087E191E00E940F11809152019091530171
:104BD000A091540189839A83AB8343E050E0BE01E6
:104BE0006F5F7F4F809126010E94140F04E610E052
:104BF00081E291E00E94EA108FE19EE40197F1F7D3
:104C000000C000000150110999F70E941E14AFE086
:104C1000B7E21197F1F700C00000EFE0F7E231973B
:104C2000F1F700C000000E941E148091890580FFEA
:104C300015C06FEF7FEF80E490E00E9436306FEF99
:104C400082E490E00E9418306FEF7FEF90E080E008
:104C50000E9436300E94AF1280E09FCE80E490E048
:104C60000E9402308C3E964739F482E490E00E9424
:104C7000FA2F91E0823009F090E090FD48C190E079
:104C800080E03C0168EA660E711C7C011DC0F601E3
:104C9000E00FF11FA590B4906B2DC8018D5B9F4F65
:104CA0000E9418306A2DC8018C5B9F4F0E941830FB
:104CB0000E5F1F4F0815190551F72CE1E20EF11C8C
:104CC000C8010615170561F04C013CE1830E911CEB
:104CD0008C01C70185589D4F6C01C01AD10AD7CFEE
:104CE000003A124071F681E00E945A236CEE76E79A
:104CF00080E490E00E94363062E082E490E00E941E
:104D0000183060919206709193068091940690916C
:104D100095060E94971190E080E00E9402308B3E41
:104D20009E4F11F00E94C11782E090E00E94FA2F7E
:104D300080937C050E947F159093EF048093EE048E
:104D400083E090E00E94FA2F682F70E090E080E00E
:104D50000E942108609192067091930680919406BA
:104D6000909195060E9497116091EE04606860939F
:104D7000EE041091EF0484E090E00E941830612F5F
:104D800081E290E00E9418308EE391E09093F1046C
:104D90008093F00422242394312C8091BD06853029
:104DA00089F490E4F92EEE24E39400E112E180917D
:104DB000BD06853009F4AFC00E942B180E942B0855
:104DC00010927A050E941E14882359F08FB7F89428
:104DD0004091F9065091FA066091FB067091FC062D
:104DE0008FBFADE7B5E0E9E8F5E010E000E0602F47
:104DF000E190F1902D913D912E153F0509F490C160
:104E00002E253F25D12CAA24A394B12CA9014A21F7
:104E10005B21452B09F47EC1D9A26AA3EA20FB20BD
:104E200081E0E114F10409F480E08BA30E94B9064B
:104E30008160782F9DA38CA349A15AA16BA18DA15C
:104E40000E94B022F801EE0FFF1FE358FA4F808155
:104E50009181A826B926B182A082EF2809F49DC0CD
:104E60008EE0809FF001819FF00D1124E151FE4FF3
:104E7000ED0DF11D80818F3F09F48FC08DA7DD24DA
:104E8000D394C090F3040D2D10E0C8018C0D911D3A
:104E9000099764F188E090E07C01E01AF10AB8011A
:104EA0006C507B4FA70184EF94E00E94D22FB80191
:104EB00064507B4FA7018CEF94E00E94D22FA70192
:104EC000440F551FB801660F771F645F7A4F8CE05F
:104ED00095E00E94D22FB8016C5F7A4FA70184E061
:104EE00095E00E94D22FCA94C092F3048091F304FB
:104EF00090E0EDA5AE2FB0E09D01220F331F2D5B9A
:104F00003D4FAA0FBB1FBD016C5B7D4F5DC080E0B4
:104F10000E945A23F6CE8091BD06843051F140E0C4
:104F200060E080E00E94FC08E0927A051092F204B2
:104F3000E8E1F0E00FB6F894A895E09360000FBEAA
:104F4000F092600083B7817F846083BF83B7816004
:104F500083BF7894889583B78E7F83BF0FB6F8940C
:104F6000A895809160008861809360001092600035
:104F70000FBE8091BC06882309F419CF0E941E142D
:104F8000E9E8F5E081919191892B09F004C725E9C1
:104F900035E02E173F07B1F70ACFD12C72CF90E042
:104FA000FC01ED50FB4FD9015C915183DB015C9119
:104FB0005187BDA5B18B880F991FFC01ED50FB4FA8
:104FC000128E118E91E0842F41E0480F9D1538F329
:104FD0008093F30440911C0550911D0560911E05BE
:104FE00070911F052FB7F8948091F9069091FA06F9
:104FF000A091FB06B091FC062FBF841B950BA60B5E
:10500000B70B2FB7F8948090F9069090FA06A0900D
:10501000FB06B090FC062FBF80921C0590921D05E8
:10502000A0921E05B0921F056091F304E3EFF4E037
:10503000462F50E0CC24CA94DC2CE12CF12CC81A69
:10504000D90AEA0AFB0A651382C04093F3048091EF
:105050007A05811109C08091F406982F9370F82E7B
:10506000F694F694911101C0F12C809129018130C0
:1050700009F497C008F47EC0823009F47FC48330FD
:1050800009F486C40E942B0890917B05891721F0B2
:105090000E942B0880937B058091BD06843009F027
:1050A0007CCE83E08093E9008091E80082FF75CE9A
:1050B0008091E80090E085FF06C00E94610388238C
:1050C00009F485C491E08091E8008B778093E80033
:1050D000992309F462CE81E08A83E981E150E331CA
:1050E00008F0AFC4F0E0E958F74D0C94592F032DA8
:1050F0000A2D142D212D212D192D212D212D542D39
:10510000622D892DA82DD42D062E332E5A2E822EB7
:105110007A2EBF2ED394AA0CBB1C5EE0D51276CE9D
:105120000F5F1F4F0630110509F061CE8FEF8EA380
:105130008FA318A60E94B9068160782F9AA789A725
:105140004EA15FA168A58AA50E94B02243CF218D00
:10515000328D2901712C612CC414D504E604F704A6
:1051600020F441505F5F32966ECF280F391F328F87
:10517000218FF8CF109249018092F0069092F106AB
:10518000A092F206B092F30689E2E3EFF4E0A7EC16
:10519000B6E001900D928A95E1F781E080932901B4
:1051A00071CF8091280111E0F8120BC02091F40614
:1051B00023708091270190E011E02817190609F467
:1051C00010E0117010934B0167E26F1508F430C0C6
:1051D000EF2DF0E0E251F74D0C94592F16292029BC
:1051E0006429AA29F129372A7F2A852A882A8D2A23
:1051F000902A952A982A9B2A9E2AA12AA42AA72A7D
:10520000AA2AAD2AB02AB52AB82ABB2AFD2A3F2BE2
:10521000442B472B542B582B632B662B712B742B51
:105220007F2B822B8D2B902BFE2B4F2C111102C02C
:1052300010E027C040E060E080E00E94FC08F8CF6A
:105240000091490181E1089F002D112441E1E42EE4
:10525000E00EDE2C84E58E1510F434E5D32E60913B
:10526000F5067091F6068091F7060E94F509C62EA4
:10527000B72EA82E10E00D15B0F011E093E59E15A5
:10528000B8F2809149018F5F809349011111FACEE4
:1052900082E08093290180914B018111F3CEF110BE
:1052A000F1CE83E07BCFF801E551FD4F80819091F5
:1052B0004A01892331F02A2D4C2D6B2DC8010E9403
:1052C000FE080F5F1F4FD7CF0091490181E1089F72
:1052D000002D112421E1E22EE00EDE2CA4E5AE1516
:1052E00010F494E5D92E8090F6069090F706109170
:1052F000F506612F782D892D0E94F509C62EB72E4F
:10530000A82E6091F806610F782D892D0E94F5096D
:10531000962E872E782E10E00D1530F011E0B3E5B3
:10532000BE1508F0AECF84CFF801E551FD4F908156
:1053300080914A01892359F0272D492D682D90FD30
:1053400003C02A2D4C2D6B2DC8010E94FE080F5F53
:105350001F4FE2CF0091490181E1089F002D1124E8
:1053600081E1E82EE00ECE2CE4E5EE1510F414E514
:10537000C12EB090F606A090F7062091F806B0E492
:10538000DB2E3D2D329F312D1124D32E10E00C1534
:1053900030F011E053E55E1508F073CF49CFF80106
:1053A000E551FD4F808190914A018923B9F0F801C0
:1053B000EE0FFF1FEC5BFD4F808182958F70609137
:1053C000F5068D9D600D11247B2D8A2D0E94F50917
:1053D000462F282F672FC8010E94FE080F5F1F4F1E
:1053E000D6CF0091490181E1089F002D1124E1E110
:1053F000EE2EE00ECE2C64E56E1510F474E5C72E8B
:10540000B090F606A090F7062091F80660E4D62E3C
:105410003D2D329F312D1124D32E10E00C1508F0B4
:10542000B8CFF801E551FD4F808190914A01892361
:10543000D9F0F801EE0FFF1FED5BFD4F6081D69EA6
:10544000B001112455E0759567955A95E1F7809163
:10545000F506680F7B2D8A2D0E94F509462F282F0F
:10546000672FC8010E94FE080F5F1F4FD7CF009122
:10547000490181E1089F002D112431E1E32EE00E66
:10548000DE2C64E56E1510F424E5D22EC090F506EE
:105490001091F606B090F7066091F806669566954D
:1054A00066958091F0069091F1060E94EB090E94AA
:1054B000CC09805887FD8195880F282F3B2D239F8D
:1054C000212D1124822F6C2D712F0E94F509C62EDB
:1054D000B72EA82E10E00D1508F05BCFF801E551AE
:1054E000FD4F808190914A01892331F02A2D4C2D66
:1054F0006B2DC8010E94FE080F5F1F4FECCF8AE89A
:1055000096E00E94780B182FBCCE80E696E0F9CF8B
:105510008EEA99E00E94180BF6CF8FE899E0FACF57
:1055200084E799E00E94870AEECF88E599E0FACFF8
:105530008EE596E0E6CF85E596E0E3CF8CE496E055
:10554000E0CF83E396E0DDCF85E296E0EBCF80ED20
:1055500098E0E0CF87E499E0DDCF83E399E0E2CF04
:1055600088EF95E00E94C20BCECF87EC95E0FACF92
:105570008AE895E0F7CF11111EC06091F80620E18E
:10558000620F08F46FEF8091F0069091F1060E948F
:10559000EB096AE070E00E94312F892B09F048CEB8
:1055A0000E94C22F64E570E00E94452F60914A017D
:1055B0000E942C1566CE0091490181E1089F002DC3
:1055C000112491E1E92EE00E8E2D64E56E1508F4AC
:1055D00084E510E0C82ED12C0C151D0534F011E027
:1055E00083E58E1508F04DCE23CE60914A01C801A7
:1055F0000E942C150F5F1F4FEFCF11111EC060913D
:10560000F80620E1620F08F46FEF8091F0069091A8
:10561000F1060E94EB0965E070E00E94312F892BB2
:1056200009F006CE0E94C22F64E570E00E94452F6B
:1056300060914A010E940A1524CE0091490181E13E
:10564000089F002D112481E1E82EE00E8E2D94E5B7
:105650009E1508F484E510E0C82ED12C0C151D050C
:1056600034F011E0A3E5AE1508F00BCEE1CD60916A
:105670004A01C8010E940A150F5F1F4FEFCF83E850
:1056800095E00E94240C3FCF8DE795E0FACF809102
:10569000C70621E0382F321B08F430E0832F64E680
:1056A00075E00E94970C2FCF64E675E080E0F9CF9B
:1056B0008091C70621E0582F521B08F450E0852F37
:1056C0006BE275E0EECF6BE275E0F0CF8091C7063C
:1056D00021E0682F621B08F460E0862F69EF74E018
:1056E000E0CF69EF74E0E2CF8091C70621E0382F68
:1056F000321B08F430E0832F61EE74E0D2CF61EE0C
:1057000074E0D4CF8091C70621E0582F521B08F4D3
:1057100050E0852F6BEC74E0C4CF6BEC74E0C6CF27
:10572000809174052FEE31E040E0882309F45FC0DA
:105730000091490181E1089F002D112411E1E12E22
:10574000E00EDE2C64E56E1510F4B4E5DB2E6091FE
:1057500092067091930680919406909195060E940E
:10576000C70DC82E6091F5067091F6068091F70678
:105770000E94F509B62EA72E982E10E00D1508F000
:105780002ECFF801E551FD4F808190914A01892388
:10579000B1F0F801E05EFA4F6081462F4F706295DC
:1057A0006F708C2D0E948D1520E040E060E0029724
:1057B00018F0292D4B2D6A2DC8010E94FE080F5F9D
:1057C0001F4FDCCFF901E80FF91FE081E43530F419
:1057D000F0E0E05EFA4F542F582B508301968E3044
:1057E000910581F7225F3F4F405F403619F090E00E
:1057F00080E0E8CF81E0809374059ACF0091490161
:1058000081E1089F002D1124A1E1EA2EE00E9E2CDB
:1058100094E59E1510F4F4E59F2EC02ED12CA3E044
:105820000A9F800111240A561A4FAA24AA94B12C67
:10583000C91430F011E0E3E5EE1508F022CDF8CC04
:10584000F601E551FD4F808190914A01892309F1CC
:105850008091F706F8016080869D30011124E18176
:105860008E9FF0011124D80112969C91899FC0014E
:105870001124B5010E94312F262FC301B5010E94CA
:10588000312F462FCF01B5010E94312FC6010E9452
:10589000FE080D5F1F4FBFEFCB1ADB0AC9CF009187
:1058A000490181E1089F002D112471E1E72EE00EEE
:1058B000DE2CF4E5FE1510F464E5D62E111113C0AC
:1058C000809179058F5F8093790540917905411129
:1058D00008C080917805883059F4109277051092AD
:1058E000780510E040C01092790510927805EDCF50
:1058F000E82FF0E0EE0FFF1FEF53FE4F9081518134
:105900006EE0969F9001112421513E4F250F311DCD
:10591000D9019C919F3F19F09093750541E0409308
:1059200077058F5F80937805DCCFF801E551FD4F57
:10593000808120914A018223A1F060917905690F4D
:1059400030917705E5E7F5E080E77FEF20E023136E
:105950000EC00E94F509462F282F672FC8010E940C
:10596000FE080F5F1F4F902F0D15F8F2D7CC419115
:10597000941302C08FEF70E02F5FE9CFF0922801FF
:105980008091F4068370809327010E94FD1389CCD7
:105990004091F0065091F1066091F2067091F30685
:1059A0002FB7F8948091F9069091FA06A091FB0622
:1059B000B091FC062FBF841B950BA60BB70B40972D
:1059C000A105B10508F45ECB109229015BCB00E282
:1059D00010E0FE0131967F018091E80085FD0AC04C
:1059E0008091E8008B778093E8000E946103882310
:1059F00099F368CB8091F100D7018D937D0101501F
:105A0000110951F75FCB86E78B838CEE8C8381E0A5
:105A10008D8308C04EE150E065E571E0CE0103964C
:105A20000E94DB2F1A820DC04EE150E067E671E064
:105A3000F5CF80919706882321F01A8281E0809328
:105A400096068091BD06843001F51091E9001F7023
:105A50008091EC0080FF9DC180E8182B82E080934C
:105A6000E9008091E80080FF0DC050E040E060E276
:105A700070E0CE0101960E9490038091E8008E773D
:105A80008093E8001F701093E900809196068823A8
:105A900009F483C95FEF60E782E0515060408040C5
:105AA000E1F700C00000D6C88B81843050F66C81CD
:105AB000663038F64D814E3020F60E948D158E836B
:105AC0009F83B0CF9B81943008F0BBCF0C81063010
:105AD00008F0B7CF8D818E3008F0B3CFFE806F8194
